100   95050314950595330000000000000980000000000980002000000010410408010839380938077668780801000005512697   1020000200030000   333400010001204104000000281Myanmar Soft-Gate Tech Yangon        MMR11008010839380938070801000000000000000   10300001F05104100000000000206000000000000     
100   95030301100078200000000000002940000000002940002000000010410408011246221622072172000801000005513929   1020000200030000   333400010001204104000000281Myanmar Soft-Gate Tech Yangon        MMR11008011246221622070801000000000000000   10300001F05104100000000000617000000000000     
100   62911028202093680000000000003000000000003000002000000010410408011359512951172172000801000005514268   1030000400030000   3334000100012051040000028572C2P MYANMAR CO LTD    Yangon        MMR11008011359512951170801000000000000000   10300001F05104100000000000630000000000000     
100   95050312911050270000000000000980000000000980002000000010410408010955132513799661650801000005513030   1020000200030000   333400010001204104000000281Myanmar Soft-Gate Tech Yangon        MMR11008010955132513790801000000000000000   10300001F05104100000000000206000000000000     
100   95050313732480420000000000000980000000000980002000000010410408010408013801898434660801000005511192   1020000200030000   333400010001204104000000281Myanmar Soft-Gate Tech Yangon        MMR11008010408013801890801000000000000000   10300001F05104100000000000206000000000000     
100   62911028202121490000000000031600000000031600002000000010410407310946100018122172000731121216001812   1030000500030000   591220013801       10300005AYA BANK                             MMR11007310946100018120731000000000000000   10300001 00104100000000001896000000000000     
100   95050318694773110000000000001960000000001960002000000010410408011058322832014860610801000005513382   1020000200030000   333400010001204104000000281Myanmar Soft-Gate Tech Yangon        MMR11008011058322832010801000000000000000   10300001F05104100000000000412000000000000     
100   95050311184380560000000000002940000000002940002000000010410408010209383938875868600801000005510693   1020000200030000   333400010001204104000000281Myanmar Soft-Gate Tech Yangon        MMR11008010209383938870801000000000000000   10300001F05104100000000000617000000000000     
100   95050312498129060000000000000980000000000980002000000010410408010708463846668300110801000005512219   1020000200030000   333400010001204104000000281Myanmar Soft-Gate Tech Yangon        MMR11008010708463846660801000000000000000   10300001F05104100000000000206000000000000     
100   62443100399918110000000000016850000000016850002000000010410408010237351144215187830801813070935212   1030000900030000   591219000601190110000000441Shwe Ohh Pharmacy St-3 YANGON        MMR11008010237351144210801000000000000000   10300001F00104100000000004044000000000000     
100   95050312641885210000000000000980000000000980002000000010410408010837320732044278720801000005512682   1020000200030000   333400010001204104000000281Myanmar Soft-Gate Tech Yangon        MMR11008010837320732040801000000000000000   10300001F05104100000000000206000000000000     
100   95050314567755980000000000002940000000002940002000000010410408010457452745811023190801000005511487   1020000200030000   333400010001204104000000281Myanmar Soft-Gate Tech Yangon        MMR11008010457452745810801000000000000000   10300001F05104100000000000617000000000000     
100   95030336100008990000000000002940000000002940002000000010410408011418094809782172000801000005514353   1020000200030000   333400010001204104000000281Myanmar Soft-Gate Tech Yangon        MMR11008011418094809780801000000000000000   10300001F05104100000000000617000000000000     
100   95050318242219520000000000000980000000000980002000000010410408011019494949806186490801000005513171   1020000200030000   333400010001204104000000281Myanmar Soft-Gate Tech Yangon        MMR11008011019494949800801000000000000000   10300001F05104100000000000206000000000000     
100   95050311184380560000000000004900000000004900002000000010410408010207103710120911150801000005510683   1020000200030000   333400010001204104000000281Myanmar Soft-Gate Tech Yangon        MMR11008010207103710120801000000000000000   10300001F05104100000000001029000000000000     
100   95050328074436620000000000009800000000009800002000000010410408010242581258136925410801000005510808   1020000200030000   333400010001204104000000281Myanmar Soft-Gate Tech Yangon        MMR11008010242581258130801000000000000000   10300001F05104100000000002058000000000000     
100   95050312911050270000000000002940000000002940002000000010410408010959582958184704200801000005513064   1020000200030000   333400010001204104000000281Myanmar Soft-Gate Tech Yangon        MMR11008010959582958180801000000000000000   10300001F05104100000000000617000000000000     
100   95050316215826630000000000005880000000005880002000000010410408011505503550687364050801000005514582   1020000200030000   333400010001204104000000281Myanmar Soft-Gate Tech Yangon        MMR11008011505503550680801000000000000000   10300001F05104100000000001235000000000000     
100   95030301100133150000000000000980000000000980002000000010410408011454212421012172000801000005514542   1020000200030000   333400010001204104000000281Myanmar Soft-Gate Tech Yangon        MMR11008011454212421010801000000000000000   10300001F05104100000000000206000000000000     
100   95030301100133150000000000002940000000002940002000000010410408011155212521832172000801000005513694   1020000200030000   333400010001204104000000281Myanmar Soft-Gate Tech Yangon        MMR11008011155212521830801000000000000000   10300001F05104100000000000617000000000000     
100   95050311559234320000000000006860000000006860002000000010410408011053342334711555640801000005513354   1020000200030000   333400010001204104000000281Myanmar Soft-Gate Tech Yangon        MMR11008011053342334710801000000000000000   10300001F05104100000000001441000000000000     
100   95050313113158460000000000000980000000000980002000000010410408011518104810542406600801000005514624   1020000200030000   333400010001204104000000281Myanmar Soft-Gate Tech Yangon        MMR11008011518104810540801000000000000000   10300001F05104100000000000206000000000000     
100   95050319709462380000000000001960000000001960002000000010410408011409083908565115900801000005514325   1020000200030000   333400010001204104000000281Myanmar Soft-Gate Tech Yangon        MMR11008011409083908560801000000000000000   10300001F05104100000000000412000000000000     
100   95030349489765520000000000030000000000030000002000000010410408011110384038922172000801000005513449   1030000200030000   333800010001203104000003327KBZPay                 Yangon        MMR11008011110384038920801000000000000000   10300001F05104100000000006300000000000000     
100   95050326155679180000000000023937000000023937002000000010410407300408380001423711250730121110000142   1030000500030000   541120017802       10300005AYA BANK                             MMR11007300408380001420730000000000000000   10300001 00104100000000005985000000000000     
100   62911028202410150000000000011900000000011900002000000010410407310549470006722172000731121212000672   1030000500030000   591220009301       10300005AYA BANK                             MMR11007310549470006720731000000000000000   10300001 00104100000000000714000000000000     
100   62911028202446540000000003000000000003000000002000000010410407310920180006002172000731121215000600   1030000500030000   806220009106       10300005AYA BANK                             MMR11007310920180006000731000000000000000   10300001 00104100000000180000000000000000     
100   95050313243172680000000000039650000000039650002000000010410407310633110021696266500731000731464806   1030000200030000   541188001273000008000000312KBZ BANK               CITY MART - N MMR11007310633110021690731000000000000000   10300001 00104100000000009913000000000000     
100   95050313102162270000000000022323000000022323002000000010410407310257120025448144340731000731448335   1030000200030000   541188001201000008000000330KBZ BANK               OCEAN SUPERCE MMR11007310257120025440731000000000000000   10300001 00104100000000005581000000000000     
100   95050320205194540000000000040850000000040850002000000010410407310457110019040167150731121211001904   1030000500030000   591220013501       10300005AYA BANK                             MMR11007310457110019040731000000000000000   10300001 00104100000000009804000000000000     
100   62911028202410150000000000080850000000080850002000000010410407310512520006692172000731121211000669   1030000500030000   591220009301       10300005AYA BANK                             MMR11007310512520006690731000000000000000   10300001 00104100000000004851000000000000     
100   62911028202451150000000000205500000000205500002000000010410407310955440010442172000731000731479889   1030000200030000   541188001231000008000000381KBZ BANK               OCEAN SUPER C MMR11007310955440010440731000000000000000   10300001 00104100000000012330000000000000     
100   95050328275983620000000000002940000000002940002000000010410408011131080108197995380801000005513569   1020000200030000   333400010001204104000000281Myanmar Soft-Gate Tech Yangon        MMR11008011131080108190801000000000000000   10300001F05104100000000000617000000000000     
100   95050312139901420000000000001000000000001000002000000010410408010402263226786585030801000005511162   1030000200030000   333800010001203104000003327KBZPay                 Yangon        MMR11008010402263226780801000000000000000   10300001F05104100000000000210000000000000     
100   95050317903887690000000000003000000000003000002000000010410408011311374137563718700801000005514020   1030000400030000   3334000100012051040000028572C2P MYANMAR CO LTD    Yangon        MMR11008011311374137560801000000000000000   10300001F05104100000000000630000000000000     
100   95050313830151180000000000000980000000000980002000000010410408010239120912758662990801000005510789   1020000200030000   333400010001204104000000281Myanmar Soft-Gate Tech Yangon        MMR11008010239120912750801000000000000000   10300001F05104100000000000206000000000000     
100   95050312695033440000000000000980000000000980002000000010410408010437380738515299880801000005511353   1020000200030000   333400010001204104000000281Myanmar Soft-Gate Tech Yangon        MMR11008010437380738510801000000000000000   10300001F05104100000000000206000000000000     
100   62911028202415850000000000151600000000151600002000000010410408010828001244042172000801415581400212   1030000900030000   541119001111190110000000872Sein Gay Har Hledan    YANGONUT      MMR11008010828001244040801000000000000000   10300001F00104100000000009096000000000000     
100   95050317903887690000000000002940000000002940002000000010410408011257512751820413730801000005513983   1020000200030000   333400010001204104000000281Myanmar Soft-Gate Tech Yangon        MMR11008011257512751820801000000000000000   10300001F05104100000000000617000000000000     
100   95050319528093960000000000000980000000000980002000000010410408010549421942776491230801000005511815   1020000200030000   333400010001204104000000281Myanmar Soft-Gate Tech Yangon        MMR11008010549421942770801000000000000000   10300001F05104100000000000206000000000000     
100   62443100340288250000000000010000000000010000002000000010410407310453260104693472120731121211010469   1030000500030000   598320001401       10300005AYA BANK                             MMR11007310453260104690731000000000000000   10300001 00104100000000001200000000000000     
100   95050315250339200000000000000980000000000980002000000010410408010818234823235335530801000005512573   1020000200030000   333400010001204104000000281Myanmar Soft-Gate Tech Yangon        MMR11008010818234823230801000000000000000   10300001F05104100000000000206000000000000     
100   62911028202451150000000000031950000000031950002000000010410407310957510010452172000731000731480050   1030000200030000   541188001231000008000000381KBZ BANK               OCEAN SUPER C MMR11007310957510010450731000000000000000   10300001 00104100000000001917000000000000     
100   62911028202169750000000000150794000000150794002000000010410408010405250057912172000801000731509741   1030000200030000   541188001039000008000000010KBZ BANK               MARKETPLACE - MMR11008010405250057910801000000000000000   10300001 00104100000000009048000000000000     
100   95050314567755980000000000000980000000000980002000000010410408010458412841336065740801000005511495   1020000200030000   333400010001204104000000281Myanmar Soft-Gate Tech Yangon        MMR11008010458412841330801000000000000000   10300001F05104100000000000206000000000000     
100   95050311438762210000000000004900000000004900002000000010410408011001433143523051720801000005513074   1020000200030000   333400010001204104000000281Myanmar Soft-Gate Tech Yangon        MMR11008011001433143520801000000000000000   10300001F05104100000000001029000000000000     
100   62911028202057620000000000150000000000150000002000000010410408010217014701432172000801000005510716   1030000200030000   333800010001203104000003327KBZPay                 Yangon        MMR11008010217014701430801000000000000000   10300001F05104100000000031500000000000000     
100   95050317071956460000000000004900000000004900002000000010410408010815174517956988010801000005512555   1020000200030000   333400010001204104000000281Myanmar Soft-Gate Tech Yangon        MMR11008010815174517950801000000000000000   10300001F05104100000000001029000000000000     
100   95050320335873810000000000050000000000050000002000000010410408010455282528869370710801000005511470   1030000200030000   333800010001203104000003327KBZPay                 Yangon        MMR11008010455282528860801000000000000000   10300001F05104100000000010500000000000000     
100   95030308100042590000000000044000000000044000002000000010410408010528525300692172000801218091234212   1030000500030000   888810111248104519000009672Max Energy CoLtd 11                  MMR11008010528525300690801000000000000000   10300001 00104100000000001320000000000000     
100   62911028202443400000000000022300000000022300002000000010410408010248065257352172000801895170930212   1030000500030000   555610112249104519000010487Ocean Super Center St  ohn           MMR11008010248065257350801000000000000000   10300001 00104100000000001338000000000000     
100   62443100328070970000000000011900000000011900002000000010410408010706505328843427760801671411341212   1030000500030000   555610124465104519000003432City Mart Junction Zaw na 1          MMR11008010706505328840801000000000000000   10300001 00104100000000002975000000000000     
100   95050310781817950000000000019697000000019697002000000010410408011022565256574534010801000005513179   1020000200030000   333300010001204104000000406MyanPay Co.,Ltd        Yangon        MMR11008011022565256570801000000000000000   10300001F05104100000000010000000000000000     
100   95050311410072740000000000008156000000008156002000000010410408010421245277744959500801362521021212   1030000500030000   555610121301104519000017714City Mart Yuzana Dagon Seikkan       MMR11008010421245277740801000000000000000   10300001 00104100000000002039000000000000     
100   95030379992168510000000000202000000000202000002000000010410408010414375286902172000801494241115212   1030000500030000   555510109173104519000008197Snoopy Mobile North Ok ala Branch    MMR11008010414375286900801000000000000000   10300001 00104100000000012120000000000000     
100   95030364758608280000000000008300000000008300002000000010410408010740425336072172000801593081454212   1030000500030000   555610118972104519000016137City Mart South Okkala WZYD BR       MMR11008010740425336070801000000000000000   10300001 00104100000000000498000000000000     
100   95050315099113150000000000004900000000004900002000000010410408011150192019661896030801000005513673   1020000200030000   333400010001204104000000281Myanmar Soft-Gate Tech Yangon        MMR11008011150192019660801000000000000000   10300001F05104100000000001029000000000000     
100   95050315110306410000000000001960000000001960002000000010410408010851252125907328400801000005512748   1020000200030000   333400010001204104000000281Myanmar Soft-Gate Tech Yangon        MMR11008010851252125900801000000000000000   10300001F05104100000000000412000000000000     
100   95050316049877640000000000001960000000001960002000000010410408010351342134668322610801000005511108   1020000200030000   333400010001204104000000281Myanmar Soft-Gate Tech Yangon        MMR11008010351342134660801000000000000000   10300001F05104100000000000412000000000000     
100   95050316438375580000000000036400000000036400002000000010410408010328395263483109870801671560958212   1030000200030000   555610110014104519000008890Ocean Super Center Mon wa            MMR11008010328395263480801000000000000000   10300001 00104100000000009100000000000000     
100   95050311926829590000000000000980000000000980002000000010410408011342371237081725830801000005514198   1020000200030000   333400010001204104000000281Myanmar Soft-Gate Tech Yangon        MMR11008011342371237080801000000000000000   10300001F05104100000000000206000000000000     
100   95050326426352250000000000050000000000050000002000000010410408010338060806438067320801000005511043   1030000200030000   333800010001203104000003327KBZPay                 Yangon        MMR11008010338060806430801000000000000000   10300001F05104100000000010500000000000000     
100   62443100337100010000000000005000000000005000002000000010410408011211094109617023670801000005513772   1030000400030000   3333000100012051040000003312c2p(Myanmar)Company L Yangon        MMR11008011211094109610801000000000000000   10300001F05104100000000010000000000000000     
100   62911028202294570000000000135818000000135818002000000010410408010403140024062172000801000731509609   1030000200030000   541188001010000008000000008KBZ BANK               MARKETPLACE - MMR11008010403140024060801000000000000000   10300001 00104100000000008149000000000000     
100   95030395875796410000000000025150000000025150002000000010410408010220155254932172000801576490845212   1030000500030000   555510125208104519000021069Carrefour Easy 005                   MMR11008010220155254930801000000000000000   10300001 00104100000000001509000000000000     
100   62911028202169750000000000018686000000018686002000000010410408010512185291822172000801110401144212   1030000500030000   555610103466104519000003420City Mart Yankin Cente 5             MMR11008010512185291820801000000000000000   10300001 00104100000000001121000000000000     
100   95030302100061930000000000101753000000101753002000000010410408010520415293972172000801369481108212   1030000300030000   555610103651104519000003559Capital Hypermarket Da bon           MMR11008010520415293970801000000000000000   10300001 00104100000000006105000000000000     
100   95050321188471220000000000042232000000042232002000000010410408010605325311243271350801484421230212   1030000200030000   555610110007104519000008890Ocean Super Center Mon wa            MMR11008010605325311240801000000000000000   10300001 00104100000000010558000000000000     
100   95050311410072740000000000009300000000009300002000000010410408010417525276459916940801209471059212   1030000500030000   555610120947104519000017714City Mart Yuzana Dagon Seikkan       MMR11008010417525276450801000000000000000   10300001 00104100000000002325000000000000     
100   95050326945666250000000000018700000000018700002000000010410408010412165274296867260801962401014212   1030000200030000   555610110048104519000008891Ocean Super Center Maw amyine        MMR11008010412165274290801000000000000000   10300001 00104100000000004675000000000000     
100   95050321188471220000000000004000000000004000002000000010410408010609515312641618870801658471209212   1030000200030000   555610110007104519000008890Ocean Super Center Mon wa            MMR11008010609515312640801000000000000000   10300001 00104100000000001000000000000000     
100   95050313582696900000000000006000000000006000002000000010410408010819255347290292980801034461451212   1030000300030000   555510118815104519000016016MGOU Ocean Pazundaung                MMR11008010819255347290801000000000000000   10300001 00104100000000001440000000000000     
100   62911028202488610000000000007300000000007300002000000010410408010352190024072172000801000731508832   1030000200030000   541188001082000008000000294KBZ BANK               CITY MART - J MMR11008010352190024070801000000000000000   10300001 00104100000000000438000000000000     
100   62911028202284260000000000085018000000085018002000000010410408010715370045392172000801000731521366   1030000200030000   541188001041000008000000010KBZ BANK               MARKETPLACE - MMR11008010715370045390801000000000000000   10300001 00104100000000005101000000000000     
100   62911028202659640000000000049564000000049564002000000010410408010435380042092172000801000731511482   1030000200030000   541188001009000008000000008KBZ BANK               MARKETPLACE - MMR11008010435380042090801000000000000000   10300001 00104100000000002974000000000000     
100   95050311447065910000000000008000000000008000002000000010410408010851450002185675920801000731526970   1030000200030000   541188001215000008000000330KBZ BANK               OCEAN SUPERCE MMR11008010851450002180801000000000000000   10300001 00104100000000002000000000000000     
100   95030301100122420000000000105130000000105130002000000010410408010624550011752172000801000731518443   1030000200030000   541188001314000008000000306KBZ BANK               CITY MART - S MMR11008010624550011750801000000000000000   10300001 00104100000000006308000000000000     
100   62911028202284260000000000005400000000005400002000000010410408010629420016112172000801000731518670   1030000200030000   541188001046000008000000010KBZ BANK               MARKETPLACE - MMR11008010629420016110801000000000000000   10300001 00104100000000000324000000000000     
100   95030301100124400000000000006900000000006900002000000010410408010646180025552172000801000731519621   1030000200030000   541188001279000008000000312KBZ BANK               CITY MART - N MMR11008010646180025550801000000000000000   10300001 00104100000000000414000000000000     
100   95050313582696900000000000031574000000031574002000000010410408010838270037397583690801000731526245   1030000200030000   541188001192000008000000330KBZ BANK               OCEAN SUPERCE MMR11008010838270037390801000000000000000   10300001 00104100000000007894000000000000     
100   95030364758608280000000000029400000000029400002000000010410408010731115333662172000801272001402212   1030000500030000   555610118964104519000016137City Mart South Okkala WZYD BR       MMR11008010731115333660801000000000000000   10300001 00104100000000001764000000000000     
100   62911028202443400000000000059721000000059721002000000010410408010322065263102172000801620540939212   1030000500030000   555610112236104519000010487Ocean Super Center St  ohn           MMR11008010322065263100801000000000000000   10300001 00104100000000003583000000000000     
100   62911028202443400000000000008000000000008000002000000010410408010337085265782172000801957071027212   1030000500030000   555610112532104519000010487Ocean Super Center St  ohn           MMR11008010337085265780801000000000000000   10300001 00104100000000000480000000000000     
100   62911028202449100000000000020000000000020000002000000010410408010449455285692172000801342201128212   1030000500030000   888810121685104519000009666Max Energy CoLtd 5                   MMR11008010449455285690801000000000000000   10300001 00104100000000000600000000000000     
100   62911028202148970000000000002350000000002350002000000010410408010801485342862172000801464311447212   1030000500030000   555610112241104519000010487Ocean Super Center St  ohn           MMR11008010801485342860801000000000000000   10300001 00104100000000000141000000000000     
100   62911028202217510000000000029391000000029391002000000010410408010338025265442172000801916051046212   1030000500030000   555610112241104519000010487Ocean Super Center St  ohn           MMR11008010338025265440801000000000000000   10300001 00104100000000001764000000000000     
100   95050319996628650000000000000980000000000980002000000010410408011527035703030754120801000005514664   1020000200030000   333400010001204104000000281Myanmar Soft-Gate Tech Yangon        MMR11008011527035703030801000000000000000   10300001F05104100000000000206000000000000     
100   62911028202529210000000000054100000000054100002000000010410408010911285362982172000801074421513212   1030000300030000   555610103620104519000003559Capital Hypermarket Da bon           MMR11008010911285362980801000000000000000   10300001 00104100000000003246000000000000     
100   95050324250133010000000000013600000000013600002000000010410408010421110013764874400801000731510654   1030000200030000   541188001306000008000000325KBZ BANK               CITY MART - A MMR11008010421110013760801000000000000000   10300001 00104100000000003400000000000000     
100   95050311447065910000000000032850000000032850002000000010410408010844050037423938330801000731526584   1030000200030000   541188001192000008000000330KBZ BANK               OCEAN SUPERCE MMR11008010844050037420801000000000000000   10300001 00104100000000008213000000000000     
100   95030301100124990000000000094514000000094514002000000010410408010450570007102172000801000731512482   1030000200030000   541188001227000008000000381KBZ BANK               OCEAN SUPER C MMR11008010450570007100801000000000000000   10300001 00104100000000005671000000000000     
100   95050321913478670000000000048200000000048200002000000010410408010621380022226576320801000731518267   1030000200030000   541188001054000008000000314KBZ BANK               MARKETPLACE - MMR11008010621380022220801000000000000000   10300001 00104100000000012050000000000000     
100   62911028202193670000000000020653000000020653002000000010410408010724450014592172000801000731521945   1030000200030000   541188001303000008000000325KBZ BANK               CITY MART - A MMR11008010724450014590801000000000000000   10300001 00104100000000001239000000000000     
100   95050312595952760000000000001960000000001960002000000010410408011152122212163548510801000005513685   1020000200030000   333400010001204104000000281Myanmar Soft-Gate Tech Yangon        MMR11008011152122212160801000000000000000   10300001F05104100000000000412000000000000     
100   95050320335873810000000000000980000000000980002000000010410408010451342134649285620801000005511450   1020000200030000   333400010001204104000000281Myanmar Soft-Gate Tech Yangon        MMR11008010451342134640801000000000000000   10300001F05104100000000000206000000000000     
100   95050315122972560000000000000980000000000980002000000010410408011120415041084520220801000005513513   1020000200030000   333400010001204104000000281Myanmar Soft-Gate Tech Yangon        MMR11008011120415041080801000000000000000   10300001F05104100000000000206000000000000     
100   62443100328070970000000000030850000000030850002000000010410408011012335379897753880801239421609212   1030000500030000   555610112249104519000010487Ocean Super Center St  ohn           MMR11008011012335379890801000000000000000   10300001 00104100000000007713000000000000     
100   95050310781817950000000000019697000000019697002000000010410408011027195719804775510801000005513200   1020000200030000   333300010001204104000000406MyanPay Co.,Ltd        Yangon        MMR11008011027195719800801000000000000000   10300001F05104100000000010000000000000000     
100   62443100328070970000000000061810000000061810002000000010410408011001175376783136820801846301608212   1030000500030000   555610112246104519000010487Ocean Super Center St  ohn           MMR11008011001175376780801000000000000000   10300001 00104100000000015453000000000000     
100   95050314703432410000000000000980000000000980002000000010410408010324415441466499930801000005510970   1020000200030000   333400010001204104000000281Myanmar Soft-Gate Tech Yangon        MMR11008010324415441460801000000000000000   10300001F05104100000000000206000000000000     
100   95050314567080940000000000000980000000000980002000000010410408010126245624027350890801000005510570   1020000200030000   333400010001204104000000281Myanmar Soft-Gate Tech Yangon        MMR11008010126245624020801000000000000000   10300001F05104100000000000206000000000000     
100   62911028202370470000000000000980000000000980002000000010410408011228575857102172000801000005513858   1020000200030000   333400010001204104000000281Myanmar Soft-Gate Tech Yangon        MMR11008011228575857100801000000000000000   10300001F05104100000000000206000000000000     
100   62911028202266930000000000036615000000036615002000000010410408011102095392112172000801031311702212   1030000500030000   555610115767104519000013506MarketplaceMyanmarPlaz Branch        MMR11008011102095392110801000000000000000   10300001 00104100000000002197000000000000     
100   95030336100008990000000000004900000000004900002000000010410408011429445944432172000801000005514404   1020000200030000   333400010001204104000000281Myanmar Soft-Gate Tech Yangon        MMR11008011429445944430801000000000000000   10300001F05104100000000001029000000000000     
100   95050312695033440000000000001960000000001960002000000010410408011310504050955371180801000005514045   1020000200030000   333400010001204104000000281Myanmar Soft-Gate Tech Yangon        MMR11008011310504050950801000000000000000   10300001F05104100000000000412000000000000     
100   95050312911050270000000000001960000000001960002000000010410408010957072707381399240801000005513040   1020000200030000   333400010001204104000000281Myanmar Soft-Gate Tech Yangon        MMR11008010957072707380801000000000000000   10300001F05104100000000000412000000000000     
100   95050311184380560000000000002940000000002940002000000010410408010205113511072648730801000005510675   1020000200030000   333400010001204104000000281Myanmar Soft-Gate Tech Yangon        MMR11008010205113511070801000000000000000   10300001F05104100000000000617000000000000     
100   95050312139901420000000000001000000000001000002000000010410408010400593059879889990801000005511148   1030000200030000   333800010001203104000003327KBZPay                 Yangon        MMR11008010400593059870801000000000000000   10300001F05104100000000000210000000000000     
100   95050317071956460000000000014700000000014700002000000010410408010722335233601434890801000005512296   1020000200030000   333400010001204104000000281Myanmar Soft-Gate Tech Yangon        MMR11008010722335233600801000000000000000   10300001F05104100000000003087000000000000     
100   95050313238161870000000000001960000000001960002000000010410408010716004600206732730801000005512256   1020000200030000   333400010001204104000000281Myanmar Soft-Gate Tech Yangon        MMR11008010716004600200801000000000000000   10300001F05104100000000000412000000000000     
100   95050312224678430000000000003124000000003124002000000010410408010440211021288689940801000005511373   1020000200030000   333300010001204104000000406MyanPay Co.,Ltd        Yangon        MMR11008010440211021280801000000000000000   10300001F05104100000000010000000000000000     
100   95050317903887690000000000000980000000000980002000000010410408011444291429570158450801000005514485   1020000200030000   333400010001204104000000281Myanmar Soft-Gate Tech Yangon        MMR11008011444291429570801000000000000000   10300001F05104100000000000206000000000000     
100   95050310397364970000000000000980000000000980002000000010410408011027185718842881530801000005513208   1020000200030000   333400010001204104000000281Myanmar Soft-Gate Tech Yangon        MMR11008011027185718840801000000000000000   10300001F05104100000000000206000000000000     
100   62443100399918110000000000004900000000004900002000000010410408011324025402596683290801000005514094   1020000200030000   333400010001204104000000281Myanmar Soft-Gate Tech Yangon        MMR11008011324025402590801000000000000000   10300001F05104100000000001029000000000000     
100   95050312641885210000000000000980000000000980002000000010410408010526365636382590580801000005511663   1020000200030000   333400010001204104000000281Myanmar Soft-Gate Tech Yangon        MMR11008010526365636380801000000000000000   10300001F05104100000000000206000000000000     
100   95050316049877640000000000001960000000001960002000000010410408011429055905978505960801000005514396   1020000200030000   333400010001204104000000281Myanmar Soft-Gate Tech Yangon        MMR11008011429055905970801000000000000000   10300001F05104100000000000412000000000000     
100   62911028202467900000000000110990000000110990002000000010410408010957225376742172000801840291659212   1030000500030000   555610114572104519000012532City Mart Ahlone Branc               MMR11008010957225376740801000000000000000   10300001 00104100000000006659000000000000     
100   62911028202529210000000000283800000000283800002000000010410408010850045356562172000801230181531212   1030000300030000   555610103619104519000003559Capital Hypermarket Da bon           MMR11008010850045356560801000000000000000   10300001 00104100000000017028000000000000     
100   62911028202665170000000000033831000000033831002000000010410408010909045363612172000801151441527212   1030000500030000   555610103481104519000003432City Mart Junction Zaw na 8          MMR11008010909045363610801000000000000000   10300001 00104100000000002030000000000000     
100   95050327170825430000000000039600000000039600002000000010410408010837545353749321270801881071551212   1030000500030000   555610115768104519000013506MarketplaceMyanmarPlaz Branch        MMR11008010837545353740801000000000000000   10300001 00104100000000009900000000000000     
100   95050312360118350000000000002940000000002940002000000010410407311644291429927861470801000005510038   1020000200030000   333400010001204104000000281Myanmar Soft-Gate Tech Yangon        MMR11007311644291429920801000000000000000   10300001F05104100000000000617000000000000     
100   95050314248160600000000000002940000000002940002000000010410408010905163516299065980801000005512805   1020000200030000   333400010001204104000000281Myanmar Soft-Gate Tech Yangon        MMR11008010905163516290801000000000000000   10300001F05104100000000000617000000000000     
100   95050316049877640000000000001960000000001960002000000010410408011153062306503633600801000005513686   1020000200030000   333400010001204104000000281Myanmar Soft-Gate Tech Yangon        MMR11008011153062306500801000000000000000   10300001F05104100000000000412000000000000     
100   95050314567080940000000000000980000000000980002000000010410408011149121912273037930801000005513669   1020000200030000   333400010001204104000000281Myanmar Soft-Gate Tech Yangon        MMR11008011149121912270801000000000000000   10300001F05104100000000000206000000000000     
100   95050318242219520000000000000980000000000980002000000010410408011418274827328420860801000005514355   1020000200030000   333400010001204104000000281Myanmar Soft-Gate Tech Yangon        MMR11008011418274827320801000000000000000   10300001F05104100000000000206000000000000     
100   95050312638349680000000000002940000000002940002000000010410408011420155015086768380801000005514366   1020000200030000   333400010001204104000000281Myanmar Soft-Gate Tech Yangon        MMR11008011420155015080801000000000000000   10300001F05104100000000000617000000000000     
100   95050315250339200000000000000980000000000980002000000010410408010822075207988640500801000005512601   1020000200030000   333400010001204104000000281Myanmar Soft-Gate Tech Yangon        MMR11008010822075207980801000000000000000   10300001F05104100000000000206000000000000     
100   95050318575030940000000000004900000000004900002000000010410408011514544454060669020801000005514607   1020000200030000   333400010001204104000000281Myanmar Soft-Gate Tech Yangon        MMR11008011514544454060801000000000000000   10300001F05104100000000001029000000000000     
100   95050328570548980000000000013600000000013600002000000010410408010958195375629746750801681261611212   1030000300030000   444410123511104519000019729YKKO YKN                             MMR11008010958195375620801000000000000000   10300001 00104100000000005780000000000000     
100   62911028202139640000000000016735000000016735002000000010410408011045555389262172000801560171748212   1030000500030000   555610104048104519000003821City Mart North Point  enter         MMR11008011045555389260801000000000000000   10300001 00104100000000001004000000000000     
100   95050310456843760000000000004900000000004900002000000010410408010824045404215846110801000005512614   1020000200030000   333400010001204104000000281Myanmar Soft-Gate Tech Yangon        MMR11008010824045404210801000000000000000   10300001F05104100000000001029000000000000     
100   62911028202529210000000000028950000000028950002000000010410408010910075362632172000801020401525212   1030000300030000   555610103620104519000003559Capital Hypermarket Da bon           MMR11008010910075362630801000000000000000   10300001 00104100000000001737000000000000     
100   62911028202296630000000000025000000000025000002000000010410408011119245398952172000801055211825212   1030000500030000   888810111243104519000009671Max Energy CoLtd 10                  MMR11008011119245398950801000000000000000   10300001 00104100000000000750000000000000     
100   95050329683944800000000000011760000000011760002000000010410408010406063606545129680801000005511182   1020000200030000   333400010001204104000000281Myanmar Soft-Gate Tech Yangon        MMR11008010406063606540801000000000000000   10300001F05104100000000002470000000000000     
100   95050328082468580000000000020000000000020000002000000010410408010458552855304413260801000005511498   1030000200030000   333800010001203104000003327KBZPay                 Yangon        MMR11008010458552855300801000000000000000   10300001F05104100000000004200000000000000     
100   95050318617855880000000000001960000000001960002000000010410408011148231823084690410801000005513666   1020000200030000   333400010001204104000000281Myanmar Soft-Gate Tech Yangon        MMR11008011148231823080801000000000000000   10300001F05104100000000000412000000000000     
100   62443100382109160000000000050000000000050000002000000010410408011109533953758250670801000005513444   1030000200030000   333800010001203104000003327KBZPay                 Yangon        MMR11008011109533953750801000000000000000   10300001F05104100000000010500000000000000     
100   95050318575030940000000000004900000000004900002000000010410408011511454145962321510801000005514600   1020000200030000   333400010001204104000000281Myanmar Soft-Gate Tech Yangon        MMR11008011511454145960801000000000000000   10300001F05104100000000001029000000000000     
100   62443100313002190000000000036400000000036400002000000010410407310503030017858855050731121211001785   1030000500030000   591220013801       10300005AYA BANK                             MMR11007310503030017850731000000000000000   10300001 00104100000000008736000000000000     
100   95050317903887690000000000005000000000005000002000000010410407311735290529212904020801000005510178   1030000400030000   3334000100012051040000028572C2P MYANMAR CO LTD    Yangon        MMR11007311735290529210801000000000000000   10300001F05104100000000001050000000000000     
100   62443100363992240000000000100000000000100000002000000010410408010902443244440718460801000005512790   1030000200030000   333800010001203104000003327KBZPay                 Yangon        MMR11008010902443244440801000000000000000   10300001F05104100000000021000000000000000     
100   95050314567080940000000000000980000000000980002000000010410408011147461746119732960801000005513665   1020000200030000   333400010001204104000000281Myanmar Soft-Gate Tech Yangon        MMR11008011147461746110801000000000000000   10300001F05104100000000000206000000000000     
100   95030301100423890000000000021650000000021650002000000010410408010754281234642172000801063241428212   1030000900030000   591219000508190110000000355Shwe Ohh Pharmacy(SanP YANGONNGKUUN  MMR11008010754281234640801000000000000000   10300001F00104100000000001299000000000000     
100   95050314996291580000000000002940000000002940002000000010410408010242381238915272930801000005510806   1020000200030000   333400010001204104000000281Myanmar Soft-Gate Tech Yangon        MMR11008010242381238910801000000000000000   10300001F05104100000000000617000000000000     
100   95050315424817550000000000000980000000000980002000000010410408011211074107358676160801000005513776   1020000200030000   333400010001204104000000281Myanmar Soft-Gate Tech Yangon        MMR11008011211074107350801000000000000000   10300001F05104100000000000206000000000000     
100   95050312139901420000000000003500000000003500002000000010410408010403563356785044590801000005511168   1030000200030000   333800010001203104000003327KBZPay                 Yangon        MMR11008010403563356780801000000000000000   10300001F05104100000000000735000000000000     
100   62911028202481270000000000062650000000062650002000000010410408010516180062162172000801000731514133   1030000200030000   541188001025000008000000298KBZ BANK               CITY MART - M MMR11008010516180062160801000000000000000   10300001 00104100000000003759000000000000     
100   95050314020354280000000000004900000000004900002000000010410408010532550255614243070801000005511705   1020000200030000   333400010001204104000000281Myanmar Soft-Gate Tech Yangon        MMR11008010532550255610801000000000000000   10300001F05104100000000001029000000000000     
100   95050317903887690000000000003000000000003000002000000010410408011339250925039988250801000005514183   1030000400030000   3334000100012051040000028572C2P MYANMAR CO LTD    Yangon        MMR11008011339250925030801000000000000000   10300001F05104100000000000630000000000000     
100   95050312911050270000000000000980000000000980002000000010410408011152252225745286090801000005513684   1020000200030000   333400010001204104000000281Myanmar Soft-Gate Tech Yangon        MMR11008011152252225740801000000000000000   10300001F05104100000000000206000000000000     
100   95050319451859610000000000020000000000020000002000000010410408011151472147925200990801000005513680   1030000200030000   333800010001203104000003327KBZPay                 Yangon        MMR11008011151472147920801000000000000000   10300001F05104100000000004200000000000000     
100   95050316573091630000000000005880000000005880002000000010410408010611094109453186260801000005511926   1020000200030000   333400010001204104000000281Myanmar Soft-Gate Tech Yangon        MMR11008010611094109450801000000000000000   10300001F05104100000000001235000000000000     
100   95050310794962000000000000003920000000003920002000000010410408010113524352655698410801000005510549   1020000200030000   333400010001204104000000281Myanmar Soft-Gate Tech Yangon        MMR11008010113524352650801000000000000000   10300001F05104100000000000823000000000000     
100   95050316049877640000000000000980000000000980002000000010410408010438010801903647390801000005511352   1020000200030000   333400010001204104000000281Myanmar Soft-Gate Tech Yangon        MMR11008010438010801900801000000000000000   10300001F05104100000000000206000000000000     
100   95050313732480420000000000000980000000000980002000000010410408010234560456083620440801000005510777   1020000200030000   333400010001204104000000281Myanmar Soft-Gate Tech Yangon        MMR11008010234560456080801000000000000000   10300001F05104100000000000206000000000000     
100   62911028202415850000000000151600000000151600002000000010410408010826181243462172000801393561418212   1030000900030000   541119001111190110000000872Sein Gay Har Hledan    YANGONUT      MMR11008010826181243460801000000000000000   10300001F00104100000000009096000000000000     
100   95050310305100650000000000002940000000002940002000000010410408010442361236057037460801000005511396   1020000200030000   333400010001204104000000281Myanmar Soft-Gate Tech Yangon        MMR11008010442361236050801000000000000000   10300001F05104100000000000617000000000000     
100   95050318617855880000000000002940000000002940002000000010410408011146101610941385440801000005513660   1020000200030000   333400010001204104000000281Myanmar Soft-Gate Tech Yangon        MMR11008011146101610940801000000000000000   10300001F05104100000000000617000000000000     
100   62911028202522690000000000012850000000012850002000000010410408011005131274382172000801634351613212   1030000900030000   591219000603190110000000443Shwe Ohh Pharmacy St-8 YANGON        MMR11008011005131274380801000000000000000   10300001F00104100000000000771000000000000     
100   95050318694773110000000000000980000000000980002000000010410408011057272727109903160801000005513376   1020000200030000   333400010001204104000000281Myanmar Soft-Gate Tech Yangon        MMR11008011057272727100801000000000000000   10300001F05104100000000000206000000000000     
100   95050313062063490000000000000980000000000980002000000010410408010359402940718237510801000005511146   1020000200030000   333400010001204104000000281Myanmar Soft-Gate Tech Yangon        MMR11008010359402940710801000000000000000   10300001F05104100000000000206000000000000     
100   95050319451859610000000000020000000000020000002000000010410408010653172317816647630801000005512144   1030000200030000   333800010001203104000003327KBZPay                 Yangon        MMR11008010653172317810801000000000000000   10300001F05104100000000004200000000000000     
100   95050317376014640000000000001960000000001960002000000010410408011253272327852066210801000005513964   1020000200030000   333400010001204104000000281Myanmar Soft-Gate Tech Yangon        MMR11008011253272327850801000000000000000   10300001F05104100000000000412000000000000     
100   95050314570621780000000000000980000000000980002000000010410408011555462546665711570801000005514735   1020000200030000   333400010001204104000000281Myanmar Soft-Gate Tech Yangon        MMR11008011555462546660801000000000000000   10300001F05104100000000000206000000000000     
100   62443100345308040000000000050000000000050000002000000010410408010612034203901533780801000005511928   1030000200030000   333800010001203104000003327KBZPay                 Yangon        MMR11008010612034203900801000000000000000   10300001F05104100000000010500000000000000     
100   95050310456843760000000000038250000000038250002000000010410408010459381183059115420801100291138212   1030000900030000   541119000121190110000000080Sein Gay Har BAK       YANGONADA     MMR11008010459381183050801000000000000000   10300001F00104100000000009563000000000000     
100   95050310456843760000000000005450000000005450002000000010410408010637201212263257570801190071320212   1030000900030000   541119000124190110000000080Sein Gay Har BAK       YANGONADA     MMR11008010637201212260801000000000000000   10300001F00104100000000001363000000000000     
100   95050313238161870000000000000980000000000980002000000010410408011355042504750073350801000005514257   1020000200030000   333400010001204104000000281Myanmar Soft-Gate Tech Yangon        MMR11008011355042504750801000000000000000   10300001F05104100000000000206000000000000     
100   95050312695033440000000000000980000000000980002000000010410408010444391439313817590801000005511411   1020000200030000   333400010001204104000000281Myanmar Soft-Gate Tech Yangon        MMR11008010444391439310801000000000000000   10300001F05104100000000000206000000000000     
100   95050314567755980000000000002940000000002940002000000010410408010456452645257718230801000005511478   1020000200030000   333400010001204104000000281Myanmar Soft-Gate Tech Yangon        MMR11008010456452645250801000000000000000   10300001F05104100000000000617000000000000     
100   95050312911050270000000000000980000000000980002000000010410408011150232023880243540801000005513675   1020000200030000   333400010001204104000000281Myanmar Soft-Gate Tech Yangon        MMR11008011150232023880801000000000000000   10300001F05104100000000000206000000000000     
100   62911028202443400000000000007800000000007800002000000010410408010319241154112172000801087490924212   1030000900030000   581219001105190110000000890Shwepalin City Mall Ta YANGONAW      MMR11008010319241154110801000000000000000   10300001F00104100000000000796000000000000     
100   95050328082468580000000000020000000000020000002000000010410408011444061406911810920801000005514489   1030000200030000   333800010001203104000003327KBZPay                 Yangon        MMR11008011444061406910801000000000000000   10300001F05104100000000004200000000000000     
100   95050312911050270000000000000980000000000980002000000010410408010952402240831314140801000005513015   1020000200030000   333400010001204104000000281Myanmar Soft-Gate Tech Yangon        MMR11008010952402240830801000000000000000   10300001F05104100000000000206000000000000     
100   95050320360851930000000000005000000000005000002000000010410408010652422242584910050801000005512139   1030000400030000   3334000100012051040000028572C2P MYANMAR CO LTD    Yangon        MMR11008010652422242580801000000000000000   10300001F05104100000000001050000000000000     
100   95050319978637470000000000002940000000002940002000000010410408010348411841213280060801000005511093   1020000200030000   333400010001204104000000281Myanmar Soft-Gate Tech Yangon        MMR11008010348411841210801000000000000000   10300001F05104100000000000617000000000000     
100   95050311382087030000000000004900000000004900002000000010410408010551552155884838740801000005511825   1020000200030000   333400010001204104000000281Myanmar Soft-Gate Tech Yangon        MMR11008010551552155880801000000000000000   10300001F05104100000000001029000000000000     
100   95050323722449090000000000019600000000019600002000000010410408010219444944280826050801000005510718   1020000200030000   333400010001204104000000281Myanmar Soft-Gate Tech Yangon        MMR11008010219444944280801000000000000000   10300001F05104100000000004116000000000000     
100   95050312498129060000000000000980000000000980002000000010410408011321485148098335770801000005514089   1020000200030000   333400010001204104000000281Myanmar Soft-Gate Tech Yangon        MMR11008011321485148090801000000000000000   10300001F05104100000000000206000000000000     
100   62911028202093430000000000000980000000000980002000000010410408011332240224332172000801000005514145   1020000200030000   333400010001204104000000281Myanmar Soft-Gate Tech Yangon        MMR11008011332240224330801000000000000000   10300001F05104100000000000206000000000000     
100   95050313113158460000000000001960000000001960002000000010410408010138100810793960830801000005510594   1020000200030000   333400010001204104000000281Myanmar Soft-Gate Tech Yangon        MMR11008010138100810790801000000000000000   10300001F05104100000000000412000000000000     
