100   95050320624349010000000000022858000000022858002000000010410409051030191897617357450905882001738247   1030000300030000   555610103651104519000003559Capital Hypermarket Da bon           MMR11009051030191897610905000000000000000   10300001 00104100000000005715000000000000     
100   95050321204334990000000000030000000000030000002000000010410409051000221893456761780905235471653247   1030000500030000   888810111232104519000009668Max Energy CoLtd 7                   MMR11009051000221893450905000000000000000   10300001 00104100000000003600000000000000     
100   95050313732480420000000000000980000000000980002000000010410409050750402040694016830905000005713384   1020000200030000   333400010001204104000000281Myanmar Soft-Gate Tech Yangon        MMR11009050750402040690905000000000000000   10300001F05104100000000000206000000000000     
100   62911028202313050000000000048950000000048950002000000010410409050307162154915001100905708370916247   1030000900030000   591219000609190110000000449Shwe Ohh Pharmacy St-3 YANGONAUNG    MMR11009050307162154910905000000000000000   10300001F00104100000000002937000000000000     
100   62443101032111460000000000012650000000012650002000000010410409050425052176851598480905605551005247   1030000900030000   591219000501190110000000348Shwe Ohh Pharmacy (SmL YANGONUT      MMR11009050425052176850905000000000000000   10300001F00104100000000003036000000000000     
100   95050329734064360000000000020000000000020000002000000010410409050843301859671378840905293141532247   1030000500030000   888810121685104519000009666Max Energy CoLtd 5                   MMR11009050843301859670905000000000000000   10300001 00104100000000002400000000000000     
100   95050319709462380000000000001960000000001960002000000010410409050148591859689314670905000005711884   1020000200030000   333400010001204104000000281Myanmar Soft-Gate Tech Yangon        MMR11009050148591859680905000000000000000   10300001F05104100000000000412000000000000     
100   62911028202112730000000000065500000000065500002000000010410409051037521901265001100905463121702247   1030000500030000   555610112249104519000010487Ocean Super Center St  ohn           MMR11009051037521901260905000000000000000   10300001 00104100000000003930000000000000     
100   62443100327902100000000000051829000000051829002000000010410409050920391872359556170905127501533247   1030000500030000   555610112252104519000010487Ocean Super Center St  ohn           MMR11009050920391872350905000000000000000   10300001 00104100000000012958000000000000     
100   62911028202010500000000000010831000000010831002000000010410409050951151884715001100905914241630247   1030000500030000   555610103495104519000003442City Mart Thamine 12                 MMR11009050951151884710905000000000000000   10300001 00104100000000000650000000000000     
100   95050312933828140000000000032134000000032134002000000010410409050904311867366506490905412361526247   1030000500030000   555610120942104519000017714City Mart Yuzana Dagon Seikkan       MMR11009050904311867360905000000000000000   10300001 00104100000000008034000000000000     
100   95050311121153200000000000000980000000000980002000000010410409050250542054708428050905000005712034   1020000200030000   333400010001204104000000281Myanmar Soft-Gate Tech Yangon        MMR11009050250542054700905000000000000000   10300001F05104100000000000206000000000000     
100   95050314567080940000000000000980000000000980002000000010410409051150072007058505070905000005714484   1020000200030000   333400010001204104000000281Myanmar Soft-Gate Tech Yangon        MMR11009051150072007050905000000000000000   10300001F05104100000000000206000000000000     
100   62443101003317490000000000069500000000069500002000000010410409051429531928330668140905513592045247   1030000300030000   444410123662104519000019873Havana Social Club                   MMR11009051429531928330905000000000000000   10300001 00104100000000029538000000000000     
100   95050317043153610000000000042600000000042600002000000010410409050915391874512946230905439561558247   1030000500030000   555610110561104519000009163City Mart Ayeyarwon Br nch           MMR11009050915391874510905000000000000000   10300001 00104100000000010650000000000000     
100   95030302100067550000000000009000000000009000002000000010410409051038081900615001100905358091756247   1030000500030000   555610108770104519000003818City Mart Oattara Thir NPT           MMR11009051038081900610905000000000000000   10300001 00104100000000000540000000000000     
100   62911028202443730000000000071000000000071000002000000010410409050137422135635001100905216070842247   1030000900030000   591219000688190110000000519Shwe Ohh Pharmacy ST-7 YANGONUNG     MMR11009050137422135630905000000000000000   10300001F00104100000000004260000000000000     
100   62911028202529210000000000022895000000022895002000000010410409050923091907255001100905385321703247   1030000500030000   555610100099104519000000094Orange (Tamwe)                       MMR11009050923091907250905000000000000000   10300001 00104100000000001374000000000000     
100   95050324411430900000000000016000000000016000002000000010410409051103511908843717810905668381756247   1030000300030000   444410118915104519000016097SP Bakery Yangon SR 1                MMR11009051103511908840905000000000000000   10300001 00104100000000006800000000000000     
100   62911028202443730000000000044550000000044550002000000010410409050209362141875001100905324390836247   1030000900030000   591219000795190110000000627Shwe Ohh Pharmacy ST-3 YANGONINDAING MMR11009050209362141870905000000000000000   10300001F00104100000000002673000000000000     
100   95050321057500320000000000013300000000013300002000000010410409050501492187971428280905101311149247   1030000900030000   541119000284190110000000177Pro1 Global (Insein)   YANGON        MMR11009050501492187970905000000000000000   10300001F00104100000000003325000000000000     
100   95050312139901420000000000001960000000001960002000000010410409050754082408067563300905000005713395   1020000200030000   333400010001204104000000281Myanmar Soft-Gate Tech Yangon        MMR11009050754082408060905000000000000000   10300001F05104100000000000412000000000000     
100   95050319430491770000000000380000000000380000002000000010410409050620562210002449440905038501256247   1030000900030000   594419000890190110000000699Zwe Htet Gems & Jewell MANDALAYHARSA MMR11009050620562210000905000000000000000   10300001F00104100000000091200000000000000     
100   95030318100004530000000000292800000000292800002000000010410409050542242199215001100905582121224247   1030000900030000   599919001065190110000000251Pro (1) Global (MawlaM MONLAMYAING   MMR11009050542242199210905000000000000000   10300001F00104100000000017568000000000000     
100   95050326159929830000000000029380000000029380002000000010410409050550222201685414020905696201222247   1030000900030000   541119000120190110000000080Sein Gay Har BAK       YANGONADA     MMR11009050550222201680905000000000000000   10300001F00104100000000007345000000000000     
100   95030395292468530000000000030000000000030000002000000010410409050852202254835001100905985221520247   1030000900030000   581219000372190110000000244Jo Jo HotPot(CapitalHy YANGONA       MMR11009050852202254830905000000000000000   10300001F00104100000000003060000000000000     
100   62911028202440680000000000011200000000011200002000000010410409050949432273345001100905864191643247   1030000900030000   591219000795190110000000627Shwe Ohh Pharmacy ST-3 YANGONINDAING MMR11009050949432273340905000000000000000   10300001F00104100000000000672000000000000     
100   95050315122972560000000000010000000000010000002000000010410409050959102910550322030905000005713949   1030000300030000   333800010001206104000003566MPT Pay                Yangon        MMR11009050959102910550905000000000000000   10300001F05104100000000002100000000000000     
100   95050310213446310000000000004900000000004900002000000010410409050259122912228257860905000005712065   1020000200030000   333400010001204104000000281Myanmar Soft-Gate Tech Yangon        MMR11009050259122912220905000000000000000   10300001F05104100000000001029000000000000     
100   62443100392426520000000000000980000000000980002000000010410409050401243124522669080905000005712336   1020000200030000   333400010001204104000000281Myanmar Soft-Gate Tech Yangon        MMR11009050401243124520905000000000000000   10300001F05104100000000000206000000000000     
100   95050328275983620000000000002940000000002940002000000010410409051113584358538419980905000005714324   1020000200030000   333400010001204104000000281Myanmar Soft-Gate Tech Yangon        MMR11009051113584358530905000000000000000   10300001F05104100000000000617000000000000     
100   95050312695033440000000000000980000000000980002000000010410409051004243424976676680905000005713976   1020000200030000   333400010001204104000000281Myanmar Soft-Gate Tech Yangon        MMR11009051004243424970905000000000000000   10300001F05104100000000000206000000000000     
100   95050312139901420000000000070000000000070000002000000010410409051347141714872320620905000005715013   1030000200030000   333800010001203104000003327KBZPay                 Yangon        MMR11009051347141714870905000000000000000   10300001F05104100000000014700000000000000     
100   95050312139901420000000000000980000000000980002000000010410409051354292429437278070905000005715046   1020000200030000   333400010001204104000000281Myanmar Soft-Gate Tech Yangon        MMR11009051354292429430905000000000000000   10300001F05104100000000000206000000000000     
100   95030302100008810000000000171561000000171561002000000010410409050415090078705001100905000733794758   1030000200030000   541188001001000008000000008KBZ BANK               MARKETPLACE - MMR11009050415090078700905000000000000000   10300001 00104100000000010294000000000000     
100   62911028202169750000000000170907000000170907002000000010410409050318150084015001100905000733790910   1030000200030000   541188001041000008000000010KBZ BANK               MARKETPLACE - MMR11009050318150084010905000000000000000   10300001 00104100000000010254000000000000     
100   95050318242219520000000000000980000000000980002000000010410409051339520952202235520905000005714982   1020000200030000   333400010001204104000000281Myanmar Soft-Gate Tech Yangon        MMR11009051339520952200905000000000000000   10300001F05104100000000000206000000000000     
100   62911028202659640000000000011700000000011700002000000010410409050619310075485001100905000733803752   1030000200030000   541188001017000008000000008KBZ BANK               MARKETPLACE - MMR11009050619310075480905000000000000000   10300001 00104100000000000702000000000000     
100   62911028202185260000000000037900000000037900002000000010410409050320192158405001100905840500919247   1030000900030000   591219000504190110000000351Shwe Ohh Pharmacy - (Y YANGONAW      MMR11009050320192158400905000000000000000   10300001F00104100000000002274000000000000     
100   95050320624349010000000000270500000000270500002000000010410409051108021909022065330905712401705247   1030000300030000   555610103655104519000003559Capital Hypermarket Da bon           MMR11009051108021909020905000000000000000   10300001 00104100000000067625000000000000     
100   95050318617855880000000000002940000000002940002000000010410409051218514851383547620905000005714609   1020000200030000   333400010001204104000000281Myanmar Soft-Gate Tech Yangon        MMR11009051218514851380905000000000000000   10300001F05104100000000000617000000000000     
100   95050311077567400000000000003920000000003920002000000010410409050356422642767626530905000005712294   1020000200030000   333400010001204104000000281Myanmar Soft-Gate Tech Yangon        MMR11009050356422642760905000000000000000   10300001F05104100000000000823000000000000     
100   95030301100341540000000000010000000000010000002000000010410409050921245124955001100905000005713761   1030000200030000   333800010001203104000003327KBZPay                 Yangon        MMR11009050921245124950905000000000000000   10300001F05104100000000002100000000000000     
100   95050312005798410000000000001960000000001960002000000010410409050512534253033080770905000005712632   1020000200030000   333400010001204104000000281Myanmar Soft-Gate Tech Yangon        MMR11009050512534253030905000000000000000   10300001F05104100000000000412000000000000     
100   95050316272022660000000000000980000000000980002000000010410409051627575757629526230905000005715603   1020000200030000   333400010001204104000000281Myanmar Soft-Gate Tech Yangon        MMR11009051627575757620905000000000000000   10300001F05104100000000000206000000000000     
100   95050312240830690000000000039350000000039350002000000010410409051020531897089009940905788591610247   1030000500030000   555610103492104519000003442City Mart Thamine 9                  MMR11009051020531897080905000000000000000   10300001 00104100000000009838000000000000     
100   62911028202659640000000000023300000000023300002000000010410409050633101817125001100905167041320247   1030000500030000   555510115744104519000007090Ayeyarwady Bank Limite 2             MMR11009050633101817120905000000000000000   10300001 00104100000000001398000000000000     
100   95050313968650950000000000000980000000000980002000000010410409050407163716879023720905000005712363   1020000200030000   333400010001204104000000281Myanmar Soft-Gate Tech Yangon        MMR11009050407163716870905000000000000000   10300001F05104100000000000206000000000000     
100   95050314791376690000000000019050000000019050002000000010410409030936140003528628390903124616000352   1030000500030000   541120025201       10300005AYA BANK                             MMR11009030936140003520903000000000000000   10300001 00104100000000004763000000000000     
100   62911028202530280000000000046000000000046000002000000010410409030652330029855001100903124613002985   1030000500030000   598320002001       10300005AYA BANK                             MMR11009030652330029850903000000000000000   10300001 00104100000000001380000000000000     
100   62911028202105230000000000025000000000025000002000000010410409031118260015555001100903124617001555   1030000500030000   598320002702       10300005AYA BANK                             MMR11009031118260015550903000000000000000   10300001 00104100000000000750000000000000     
100   62911028202449440000000000054007000000054007002000000010410409040856020008085001100904124715000808   1030000500030000   598320001701       10300005AYA BANK                             MMR11009040856020008080904000000000000000   10300001 00104100000000001620000000000000     
100   95030308100042590000000000061000000000061000002000000010410409040729270007015001100904124713000701   1030000500030000   598320001702       10300005AYA BANK                             MMR11009040729270007010904000000000000000   10300001 00104100000000001830000000000000     
100   95030308100042590000000000039000000000039000002000000010410409040732400008025001100904124714000802   1030000500030000   598320001701       10300005AYA BANK                             MMR11009040732400008020904000000000000000   10300001 00104100000000001170000000000000     
100   62911028202243420000000000025579000000025579002000000010410409040841210067105001100904000733748816   1030000200030000   541188001144000008000000316KBZ BANK               CITY MART - N MMR11009040841210067100904000000000000000   10300001 00104100000000001535000000000000     
100   95050315259054570000000000049850000000049850002000000010410409040541030041473154220904000733730109   1030000200030000   541188001266000008000000312KBZ BANK               CITY MART - N MMR11009040541030041470904000000000000000   10300001 00104100000000012463000000000000     
100   95050319728246800000000000095000000000095000002000000010410409051119074907451810040905000005714340   1030000500030000   333800010001201104000003863AYA Pay                Yangon        MMR11009051119074907450905000000000000000   10300001F05104100000000019950000000000000     
100   62911028202440680000000000012000000000012000002000000010410409051012072280285001100905187421607247   1030000900030000   591219000688190110000000519Shwe Ohh Pharmacy ST-7 YANGONUNG     MMR11009051012072280280905000000000000000   10300001F00104100000000000720000000000000     
100   95050314735271470000000000004900000000004900002000000010410409050312164216208768440905000005712119   1020000200030000   333400010001204104000000281Myanmar Soft-Gate Tech Yangon        MMR11009050312164216200905000000000000000   10300001F05104100000000001029000000000000     
100   95050314839462530000000000003920000000003920002000000010410409050500343034473336060905000005712581   1020000200030000   333400010001204104000000281Myanmar Soft-Gate Tech Yangon        MMR11009050500343034470905000000000000000   10300001F05104100000000000823000000000000     
100   95050328570548980000000000010000000000010000002000000010410409050426095609202570190905000005712434   1030000400030000   3334000100012051040000028572C2P MYANMAR CO LTD    Yangon        MMR11009050426095609200905000000000000000   10300001F05104100000000002100000000000000     
100   95050315449866600000000000030000000000030000002000000010410409050314154415362243600905000005712126   1030000200030000   333800010001203104000003327KBZPay                 Yangon        MMR11009050314154415360905000000000000000   10300001F05104100000000006300000000000000     
100   62443100392426520000000000000980000000000980002000000010410409050404413441836059140905000005712355   1020000200030000   333400010001204104000000281Myanmar Soft-Gate Tech Yangon        MMR11009050404413441830905000000000000000   10300001F05104100000000000206000000000000     
100   62443100322986690000000000014700000000014700002000000010410409051604473447126221260905000005715557   1020000200030000   333400010001204104000000281Myanmar Soft-Gate Tech Yangon        MMR11009051604473447120905000000000000000   10300001F05104100000000003087000000000000     
100   95050325925517520000000000030000000000030000002000000010410409040448450032372018050904124711003237   1030000500030000   598320001602       10300005AYA BANK                             MMR11009040448450032370904000000000000000   10300001 00104100000000003600000000000000     
100   95030380891034700000000000040750000000040750002000000010410409040701340036825001100904124713003682   1030000500030000   541120024602       10300005AYA BANK                             MMR11009040701340036820904000000000000000   10300001 00104100000000002445000000000000     
100   95030337113021520000000000051000000000051000002000000010410409050911050024765001100905000733814606   1030000200030000   541188001096000008000000300KBZ BANK               CITY MART -JU MMR11009050911050024760905000000000000000   10300001 00104100000000003060000000000000     
100   95050312539675540000000000076732000000076732002000000010410409050753420031814258330905000733809497   1030000200030000   541188001352000008000000395KBZ BANK               OCEAN SUPERMA MMR11009050753420031810905000000000000000   10300001 00104100000000019183000000000000     
100   95050313817486860000000000024250000000024250002000000010410409050422140004787527640905000733795365   1030000200030000   541188001432000008000000401KBZ BANK               OCEAN SUPERCE MMR11009050422140004780905000000000000000   10300001 00104100000000006063000000000000     
100   62911028202022720000000000000980000000000980002000000010410409051330240024375001100905000005714940   1020000200030000   333400010001204104000000281Myanmar Soft-Gate Tech Yangon        MMR11009051330240024370905000000000000000   10300001F05104100000000000206000000000000     
100   62443100379321630000000000014400000000014400002000000010410409050939420012737988780905000733816722   1030000200030000   541188001240000008000000381KBZ BANK               OCEAN SUPER C MMR11009050939420012730905000000000000000   10300001 00104100000000003600000000000000     
100   62443100384660050000000000016500000000016500002000000010410409051005430025565024190905000733818871   1030000200030000   541188001347000008000000395KBZ BANK               OCEAN SUPERMA MMR11009051005430025560905000000000000000   10300001 00104100000000004125000000000000     
100   62443100392426520000000000000980000000000980002000000010410409050402503250071016590905000005712347   1020000200030000   333400010001204104000000281Myanmar Soft-Gate Tech Yangon        MMR11009050402503250070905000000000000000   10300001F05104100000000000206000000000000     
100   95050315099113150000000000001960000000001960002000000010410409050620235023018463710905000005712962   1020000200030000   333400010001204104000000281Myanmar Soft-Gate Tech Yangon        MMR11009050620235023010905000000000000000   10300001F05104100000000000412000000000000     
100   95050314296769560000000000000980000000000980002000000010410409051256052605447192970905000005714769   1020000200030000   333400010001204104000000281Myanmar Soft-Gate Tech Yangon        MMR11009051256052605440905000000000000000   10300001F05104100000000000206000000000000     
100   95050315122972560000000000001960000000001960002000000010410409050957192719423627000905000005713941   1020000200030000   333400010001204104000000281Myanmar Soft-Gate Tech Yangon        MMR11009050957192719420905000000000000000   10300001F05104100000000000412000000000000     
100   95050322740667800000000000100000000000100000002000000010410409051057212721188839740905000005714255   1030000200030000   333800010001203104000003327KBZPay                 Yangon        MMR11009051057212721180905000000000000000   10300001F05104100000000021000000000000000     
100   95030302100067550000000000075904000000075904002000000010410409051035401899345001100905166051758247   1030000500030000   555610103965104519000003818Ocean Oattara Thiri Na PyiTaw        MMR11009051035401899340905000000000000000   10300001 00104100000000004554000000000000     
100   95050318949654130000000000025000000000025000002000000010410409050716314631087577090905000005713235   1030000200030000   333800010001203104000003327KBZPay                 Yangon        MMR11009050716314631080905000000000000000   10300001F05104100000000005250000000000000     
100   95050310456843760000000000011150000000011150002000000010410409051110192296576767490905863401719247   1030000900030000   541119000120190110000000080Sein Gay Har BAK       YANGONADA     MMR11009051110192296570905000000000000000   10300001F00104100000000002788000000000000     
100   62443100384660050000000000041650000000041650002000000010410409051008130025573456810905000733819047   1030000200030000   541188001347000008000000395KBZ BANK               OCEAN SUPERMA MMR11009051008130025570905000000000000000   10300001 00104100000000010413000000000000     
100   95030301100122420000000000141450000000141450002000000010410409050532350026245001100905000733800664   1030000200030000   541188001316000008000000306KBZ BANK               CITY MART - S MMR11009050532350026240905000000000000000   10300001 00104100000000008487000000000000     
100   62911028202204490000000000021500000000021500002000000010410409051059570048265001100905000733822624   1030000200030000   541188001201000008000000330KBZ BANK               OCEAN SUPERCE MMR11009051059570048260905000000000000000   10300001 00104100000000001290000000000000     
100   62911028202336730000000000020000000000020000002000000010410409050642530001835001100905000733805172   1030000200030000   541188001481000008000000399KBZ BANK               OCEAN SUPERCE MMR11009050642530001830905000000000000000   10300001 00104100000000001200000000000000     
100   95050318734435310000000000056054000000056054002000000010410409050804090012554428520905000733810173   1030000200030000   541188001351000008000000395KBZ BANK               OCEAN SUPERMA MMR11009050804090012550905000000000000000   10300001 00104100000000014014000000000000     
100   95050312539675540000000000015950000000015950002000000010410409050759390021804343420905000733809886   1030000200030000   541188001366000008000000395KBZ BANK               OCEAN SUPERMA MMR11009050759390021800905000000000000000   10300001 00104100000000003988000000000000     
100   62911028202299290000000000120350000000120350002000000010410409050806360032635001100905000733810311   1030000200030000   541188001349000008000000395KBZ BANK               OCEAN SUPERMA MMR11009050806360032630905000000000000000   10300001 00104100000000007221000000000000     
100   95050313817486860000000000006000000000006000002000000010410409050344420004770420920905000733792572   1030000200030000   541188001432000008000000401KBZ BANK               OCEAN SUPERCE MMR11009050344420004770905000000000000000   10300001 00104100000000001500000000000000     
100   62911028202415850000000000046400000000046400002000000010410409051134252303105001100905125041825247   1030000900030000   541119001076190110000000872Sein Gay Har Hledan    YANGONUT      MMR11009051134252303100905000000000000000   10300001F00104100000000002784000000000000     
100   95050314567080940000000000000980000000000980002000000010410409051108373837950412840905000005714310   1020000200030000   333400010001204104000000281Myanmar Soft-Gate Tech Yangon        MMR11009051108373837950905000000000000000   10300001F05104100000000000206000000000000     
100   95050314839462530000000000004900000000004900002000000010410409050857222722734768910905000005713649   1020000200030000   333400010001204104000000281Myanmar Soft-Gate Tech Yangon        MMR11009050857222722730905000000000000000   10300001F05104100000000001029000000000000     
100   95050315122972560000000000010000000000010000002000000010410409051005003500360066740905000005713981   1030000300030000   333800010001206104000003566MPT Pay                Yangon        MMR11009051005003500360905000000000000000   10300001F05104100000000002100000000000000     
100   95050311382087030000000000002940000000002940002000000010410409050322285228390250730905000005712154   1020000200030000   333400010001204104000000281Myanmar Soft-Gate Tech Yangon        MMR11009050322285228390905000000000000000   10300001F05104100000000000617000000000000     
100   95050323722449090000000000004409000000004409002000000010410409051006443644743371710905000005713986   1020000200030000   333400010001204104000000281Myanmar Soft-Gate Tech Yangon        MMR11009051006443644740905000000000000000   10300001F05104100000000000926000000000000     
100   95050315449866600000000000030000000000030000002000000010410409050310184018173810980905000005712108   1030000200030000   333800010001203104000003327KBZPay                 Yangon        MMR11009050310184018170905000000000000000   10300001F05104100000000006300000000000000     
100   95050323722449090000000000004900000000004900002000000010410409051008413841318414260905000005713993   1020000200030000   333400010001204104000000281Myanmar Soft-Gate Tech Yangon        MMR11009051008413841310905000000000000000   10300001F05104100000000001029000000000000     
100   95050311447065910000000000006300000000006300002000000010410409051007230006335109300905000733818993   1030000200030000   541188001215000008000000330KBZ BANK               OCEAN SUPERCE MMR11009051007230006330905000000000000000   10300001 00104100000000001575000000000000     
100   62911028202419650000000000010759000000010759002000000010410409050455510056245001100905000733798036   1030000200030000   541188001293000008000000321KBZ BANK               CITY MART - Y MMR11009050455510056240905000000000000000   10300001 00104100000000000646000000000000     
100   95050326945666250000000000028650000000028650002000000010410409050408160003940676210905000733794217   1030000200030000   541188001438000008000000401KBZ BANK               OCEAN SUPERCE MMR11009050408160003940905000000000000000   10300001 00104100000000007163000000000000     
100   62911028202290100000000000020865000000020865002000000010410409050512050044055001100905000733799233   1030000200030000   541188001084000008000000294KBZ BANK               CITY MART - J MMR11009050512050044050905000000000000000   10300001 00104100000000001252000000000000     
100   62443100384660050000000000138800000000138800002000000010410409051004290025551634130905000733818795   1030000200030000   541188001347000008000000395KBZ BANK               OCEAN SUPERMA MMR11009051004290025550905000000000000000   10300001 00104100000000034700000000000000     
100   62443100379321630000000000143372000000143372002000000010410409050958110040941974520905000733818314   1030000200030000   541188001221000008000000381KBZ BANK               OCEAN SUPER C MMR11009050958110040940905000000000000000   10300001 00104100000000035843000000000000     
100   62911028202465350000000000020217000000020217002000000010410409050422230055225001100905000733795382   1030000200030000   541188001080000008000000294KBZ BANK               CITY MART - J MMR11009050422230055220905000000000000000   10300001 00104100000000001213000000000000     
100   62911028202193670000000000038981000000038981002000000010410409051048140052605001100905000733821855   1030000200030000   541188001153000008000000383KBZ BANK               OCEAN SUPER C MMR11009051048140052600905000000000000000   10300001 00104100000000002339000000000000     
100   62443100392426520000000000004900000000004900002000000010410409050358002800049364110905000005712302   1020000200030000   333400010001204104000000281Myanmar Soft-Gate Tech Yangon        MMR11009050358002800040905000000000000000   10300001F05104100000000001029000000000000     
100   95050313968650950000000000000980000000000980002000000010410409050415214521077782930905000005712400   1020000200030000   333400010001204104000000281Myanmar Soft-Gate Tech Yangon        MMR11009050415214521070905000000000000000   10300001F05104100000000000206000000000000     
100   95030327582492680000000000050000000000050000002000000010410409051608483848185001100905000005715567   1030000200030000   333800010001203104000003327KBZPay                 Yangon        MMR11009051608483848180905000000000000000   10300001F05104100000000010500000000000000     
100   95050316421999920000000000001174000000001174002000000010410409051419304930725710680905000005715160   1020000200030000   333300010001204104000000406MyanPay Co.,Ltd        Yangon        MMR11009051419304930720905000000000000000   10300001F05104100000000010000000000000000     
100   95050313113158460000000000002940000000002940002000000010410409050507133713376300640905000005712605   1020000200030000   333400010001204104000000281Myanmar Soft-Gate Tech Yangon        MMR11009050507133713370905000000000000000   10300001F05104100000000000617000000000000     
100   95050312926040930000000000000980000000000980002000000010410409051356352635757363160905000005715054   1020000200030000   333400010001204104000000281Myanmar Soft-Gate Tech Yangon        MMR11009051356352635750905000000000000000   10300001F05104100000000000206000000000000     
100   62911028202192270000000000020950000000020950002000000010410409051010382279675001100905157401638247   1030000900030000   591219000607190110000000447Shwe Ohh Pharmacy St-3 YANGONINDAING MMR11009051010382279670905000000000000000   10300001F00104100000000001257000000000000     
100   95050318141561190000000000001960000000001960002000000010410409050155192519559399760905000005711902   1020000200030000   333400010001204104000000281Myanmar Soft-Gate Tech Yangon        MMR11009050155192519550905000000000000000   10300001F05104100000000000412000000000000     
100   95050318369615460000000000009800000000009800002000000010410409050753520023642605840905000733809509   1030000200030000   571288000602000008000003445KBZ BANK               SWEETY HOME ( MMR11009050753520023640905000000000000000   10300001 00104100000000002352000000000000     
100   62911028202148970000000000013878000000013878002000000010410409050731090031645001100905000733808152   1030000200030000   541188001062000008000000314KBZ BANK               MARKETPLACE - MMR11009050731090031640905000000000000000   10300001 00104100000000000833000000000000     
100   62911028202659640000000000108925000000108925002000000010410409050606390034145001100905000733802956   1030000200030000   541188001010000008000000008KBZ BANK               MARKETPLACE - MMR11009050606390034140905000000000000000   10300001 00104100000000006536000000000000     
100   62443100346413950000000000020500000000020500002000000010410409050822090012640698070905000733811309   1030000200030000   541188001114000008000000302KBZ BANK               CITY MART - H MMR11009050822090012640905000000000000000   10300001 00104100000000005125000000000000     
100   62911028202242760000000000038650000000038650002000000010410409050634160015615001100905000733804660   1030000200030000   541188001315000008000000306KBZ BANK               CITY MART - S MMR11009050634160015610905000000000000000   10300001 00104100000000002319000000000000     
100   62911028202313050000000000029600000000029600002000000010410409050355330039325001100905000733793330   1030000200030000   541188001290000008000000321KBZ BANK               CITY MART - Y MMR11009050355330039320905000000000000000   10300001 00104100000000001776000000000000     
100   95050321204334990000000000014950000000014950002000000010410409050523290044954733250905000733800012   1030000200030000   541188001089000008000000300KBZ BANK               CITY MART -JU MMR11009050523290044950905000000000000000   10300001 00104100000000003738000000000000     
100   95050313238161870000000000025501000000025501002000000010410409051116300079323377420905000733823523   1030000200030000   541188001030000008000000298KBZ BANK               CITY MART - M MMR11009051116300079320905000000000000000   10300001 00104100000000006376000000000000     
100   95050315424817550000000000000980000000000980002000000010410409051355232523065625580905000005715050   1020000200030000   333400010001204104000000281Myanmar Soft-Gate Tech Yangon        MMR11009051355232523060905000000000000000   10300001F05104100000000000206000000000000     
100   95050323667276610000000000041160000000041160002000000010410409051103093309311980230905000005714285   1020000200030000   333400010001204104000000281Myanmar Soft-Gate Tech Yangon        MMR11009051103093309310905000000000000000   10300001F05104100000000008644000000000000     
100   95050321057500320000000000004900000000004900002000000010410409051317164716730497940905000005714872   1020000200030000   333400010001204104000000281Myanmar Soft-Gate Tech Yangon        MMR11009051317164716730905000000000000000   10300001F05104100000000001029000000000000     
100   95050315122972560000000000000980000000000980002000000010410409051325395539298930550905000005714920   1020000200030000   333400010001204104000000281Myanmar Soft-Gate Tech Yangon        MMR11009051325395539290905000000000000000   10300001F05104100000000000206000000000000     
100   95050314567080940000000000000980000000000980002000000010410409051110424042813802900905000005714313   1020000200030000   333400010001204104000000281Myanmar Soft-Gate Tech Yangon        MMR11009051110424042810905000000000000000   10300001F05104100000000000206000000000000     
100   62443100392426520000000000000980000000000980002000000010410409050400063006277711630905000005712328   1020000200030000   333400010001204104000000281Myanmar Soft-Gate Tech Yangon        MMR11009050400063006270905000000000000000   10300001F05104100000000000206000000000000     
100   62911028202652460000000000020000000000020000002000000010410409051321395139875001100905000005714893   1030000400030000   3333000100012051040000003312c2p(Myanmar)Company L Yangon        MMR11009051321395139870905000000000000000   10300001F05104100000000010000000000000000     
100   95050313732480420000000000000980000000000980002000000010410409050416364636079520510905000005712395   1020000200030000   333400010001204104000000281Myanmar Soft-Gate Tech Yangon        MMR11009050416364636070905000000000000000   10300001F05104100000000000206000000000000     
100   95050317071956460000000000002940000000002940002000000010410409050237500750006690470905000005712004   1020000200030000   333400010001204104000000281Myanmar Soft-Gate Tech Yangon        MMR11009050237500750000905000000000000000   10300001F05104100000000000617000000000000     
100   95050310494988230000000000130000000000130000002000000010410409050740461046550711860905000005713337   1030000200030000   333800010001203104000003327KBZPay                 Yangon        MMR11009050740461046550905000000000000000   10300001F05104100000000027300000000000000     
100   95050321057500320000000000002940000000002940002000000010410409050436400640963250960905000005712483   1020000200030000   333400010001204104000000281Myanmar Soft-Gate Tech Yangon        MMR11009050436400640960905000000000000000   10300001F05104100000000000617000000000000     
100   95050329734064360000000000045900000000045900002000000010410409050827230056862350550905000733811654   1030000200030000   541188001019000008000000298KBZ BANK               CITY MART - M MMR11009050827230056860905000000000000000   10300001 00104100000000011475000000000000     
100   62911028202656830000000000034260000000034260002000000010410409050337340068085001100905000733792094   1030000200030000   541188001059000008000000314KBZ BANK               MARKETPLACE - MMR11009050337340068080905000000000000000   10300001 00104100000000002056000000000000     
100   95050312695033440000000000000980000000000980002000000010410409051238130813790923420905000005714690   1020000200030000   333400010001204104000000281Myanmar Soft-Gate Tech Yangon        MMR11009051238130813790905000000000000000   10300001F05104100000000000206000000000000     
100   95050310902464360000000000002940000000002940002000000010410409051039570957630662420905000005714158   1020000200030000   333400010001204104000000281Myanmar Soft-Gate Tech Yangon        MMR11009051039570957630905000000000000000   10300001F05104100000000000617000000000000     
100   95050315330275830000000000000980000000000980002000000010410409051543151315207873740905000005715487   1020000200030000   333400010001204104000000281Myanmar Soft-Gate Tech Yangon        MMR11009051543151315200905000000000000000   10300001F05104100000000000206000000000000     
100   95050317071956460000000000000980000000000980002000000010410409050855292529874683810905000005713642   1020000200030000   333400010001204104000000281Myanmar Soft-Gate Tech Yangon        MMR11009050855292529870905000000000000000   10300001F05104100000000000206000000000000     
100   95050310213446310000000000004900000000004900002000000010410409051105243524027022780905000005714295   1020000200030000   333400010001204104000000281Myanmar Soft-Gate Tech Yangon        MMR11009051105243524020905000000000000000   10300001F05104100000000001029000000000000     
100   95050316272022660000000000008820000000008820002000000010410409050423275327570832610905000005712437   1020000200030000   333400010001204104000000281Myanmar Soft-Gate Tech Yangon        MMR11009050423275327570905000000000000000   10300001F05104100000000001852000000000000     
100   95050318949654130000000000025000000000025000002000000010410409050721415141098889180905000005713260   1030000200030000   333800010001203104000003327KBZPay                 Yangon        MMR11009050721415141090905000000000000000   10300001F05104100000000005250000000000000     
100   95050314839462530000000000005880000000005880002000000010410409051324325432920583030905000005714915   1020000200030000   333400010001204104000000281Myanmar Soft-Gate Tech Yangon        MMR11009051324325432920905000000000000000   10300001F05104100000000001235000000000000     
100   95050322740667800000000000300000000000300000002000000010410409051024425442538924840905000005714084   1030000200030000   333800010001203104000003327KBZPay                 Yangon        MMR11009051024425442530905000000000000000   10300001F05104100000000063000000000000000     
100   95050314567080940000000000000980000000000980002000000010410409051209493949398590170905000005714562   1020000200030000   333400010001204104000000281Myanmar Soft-Gate Tech Yangon        MMR11009051209493949390905000000000000000   10300001F05104100000000000206000000000000     
100   95050311382087030000000000000980000000000980002000000010410409051344311431003973100905000005715005   1020000200030000   333400010001204104000000281Myanmar Soft-Gate Tech Yangon        MMR11009051344311431000905000000000000000   10300001F05104100000000000206000000000000     
100   95050326590859670000000000050000000000050000002000000010410409050848031803389726360905000005713614   1030000200030000   333800010001203104000003327KBZPay                 Yangon        MMR11009050848031803380905000000000000000   10300001F05104100000000010500000000000000     
100   95050314567080940000000000001960000000001960002000000010410409051144541454065200100905000005714467   1020000200030000   333400010001204104000000281Myanmar Soft-Gate Tech Yangon        MMR11009051144541454060905000000000000000   10300001F05104100000000000412000000000000     
100   62911028202001100000000000002900000000002900002000000010410409050251391753785001100905455220937247   1030000500030000   555610110561104519000009163City Mart Ayeyarwon Br nch           MMR11009050251391753780905000000000000000   10300001 00104100000000000174000000000000     
100   95030301100122750000000000009000000000009000002000000010410409050611321811165001100905362431254247   1030000500030000   555610122358104519000018696CityMartSupermarket Sh ePyiTha       MMR11009050611321811160905000000000000000   10300001 00104100000000000540000000000000     
100   95050327170825430000000000019850000000019850002000000010410409050420311775124563060905373501045247   1030000300030000   555610103643104519000003559Capital Hypermarket Da bon           MMR11009050420311775120905000000000000000   10300001 00104100000000004963000000000000     
100   95050324250133010000000000010000000000010000002000000010410409050046481744920967150905383240727247   1030000500030000   888810111265104519000009676Max Energy CoLtd 15                  MMR11009050046481744920905000000000000000   10300001 00104100000000001200000000000000     
100   95050324250133010000000000035778000000035778002000000010410409050600201807017066510905805301251247   1030000300030000   555510125470104519000021294One Stop Mart Shopping Mall 00       MMR11009050600201807010905000000000000000   10300001 00104100000000008587000000000000     
100   95050314749068520000000000000980000000000980002000000010410409051442031203479015650905000005715253   1020000200030000   333400010001204104000000281Myanmar Soft-Gate Tech Yangon        MMR11009051442031203470905000000000000000   10300001F05104100000000000206000000000000     
100   95050322740667800000000000300000000000300000002000000010410409050842041204559215780905000005713577   1030000200030000   333800010001203104000003327KBZPay                 Yangon        MMR11009050842041204550905000000000000000   10300001F05104100000000063000000000000000     
100   95030301100338180000000000050000000000050000002000000010410409050409431771685001100905932401043247   1030000200030000   555510111936104519000010226Shwe Gone Dine Hospita               MMR11009050409431771680905000000000000000   10300001 00104100000000003000000000000000     
100   62443101071626420000000000102717000000102717002000000010410409050529121798868718990905650041216247   1030000500030000   555610103464104519000003420City Mart Yankin Cente 3             MMR11009050529121798860905000000000000000   10300001 00104100000000025680000000000000     
100   95050317317598540000000000005500000000005500002000000010410409050315231762135293280905597031056247   1030000300030000   444410118804104519000016005SP Bakery Yangon SR 5                MMR11009050315231762130905000000000000000   10300001 00104100000000002338000000000000     
100   95050311382087030000000000001960000000001960002000000010410409051248081808889270940905000005714732   1020000200030000   333400010001204104000000281Myanmar Soft-Gate Tech Yangon        MMR11009051248081808880905000000000000000   10300001F05104100000000000412000000000000     
100   95050318369615460000000000195000000000195000002000000010410409050721451831723846630905244511349247   1030000300030000   555610103655104519000003559Capital Hypermarket Da bon           MMR11009050721451831720905000000000000000   10300001 00104100000000048750000000000000     
100   95050319374415880000000000001960000000001960002000000010410409050734140414765584220905000005713311   1020000200030000   333400010001204104000000281Myanmar Soft-Gate Tech Yangon        MMR11009050734140414760905000000000000000   10300001F05104100000000000412000000000000     
100   95050321057500320000000000004900000000004900002000000010410409050641551155175839510905000005713074   1020000200030000   333400010001204104000000281Myanmar Soft-Gate Tech Yangon        MMR11009050641551155170905000000000000000   10300001F05104100000000001029000000000000     
100   95030301100076300000000000029500000000029500002000000010410409050733260326315001100905000005713308   1030000200030000   333800010001203104000003327KBZPay                 Yangon        MMR11009050733260326310905000000000000000   10300001F05104100000000006195000000000000     
100   62911028202185260000000000001600000000001600002000000010410409050401301770405001100905749361038247   1030000500030000   555610110581104519000009164City Mart China Town P int Cen       MMR11009050401301770400905000000000000000   10300001 00104100000000000096000000000000     
100   62443100348951400000000000233728000000233728002000000010410409050514191792336385740905742441119247   1030000500030000   555610108768104519000003818City Mart Oattara Thir NPT           MMR11009050514191792330905000000000000000   10300001 00104100000000058432000000000000     
100   62911028202421380000000000045980000000045980002000000010410409050643291822255001100905895211307247   1030000500030000   444410109107104519000008137Thai 47 Chinatown Bran h             MMR11009050643291822250905000000000000000   10300001 00104100000000004690000000000000     
100   62911028202290100000000000020400000000020400002000000010410409050523141795135001100905134531121247   1030000300030000   444410125393104519000021220Myanmar Bakery CoLtd                 MMR11009050523141795130905000000000000000   10300001 00104100000000002081000000000000     
100   62443100340288250000000000010000000000010000002000000010410409050523251802003761540905123141237247   1030000500030000   888810111231104519000009668Max Energy CoLtd 7                   MMR11009050523251802000905000000000000000   10300001 00104100000000001200000000000000     
100   95050311121153200000000000001960000000001960002000000010410409050247591759645037990905000005712028   1020000200030000   333400010001204104000000281Myanmar Soft-Gate Tech Yangon        MMR11009050247591759640905000000000000000   10300001F05104100000000000412000000000000     
100   62911028202185260000000000005050000000005050002000000010410409050403221772835001100905078431047247   1030000500030000   555610110576104519000009164City Mart China Town P int Cen       MMR11009050403221772830905000000000000000   10300001 00104100000000000303000000000000     
100   95050321204334990000000000022000000000022000002000000010410409050536091799863676440905791071251247   1030000500030000   888810111232104519000009668Max Energy CoLtd 7                   MMR11009050536091799860905000000000000000   10300001 00104100000000002640000000000000     
100   62443100379321630000000000097000000000097000002000000010410409050754311842005910810905792241446247   1030000300030000   444410124354104519000020484The Pizza Company Rest urant         MMR11009050754311842000905000000000000000   10300001 00104100000000041225000000000000     
100   95050322740667800000000000300000000000300000002000000010410409050948441844709641260905000005713880   1030000200030000   333800010001203104000003327KBZPay                 Yangon        MMR11009050948441844700905000000000000000   10300001F05104100000000063000000000000000     
100   95050325925517520000000000032000000000032000002000000010410409050758441848656081010905736431448247   1030000500030000   888810111244104519000009671Max Energy CoLtd 10                  MMR11009050758441848650905000000000000000   10300001 00104100000000003840000000000000     
100   95050318369615460000000000004400000000004400002000000010410409050736211836077321800905901061418247   1030000300030000   555610103648104519000003559Capital Hypermarket Da bon           MMR11009050736211836070905000000000000000   10300001 00104100000000001100000000000000     
100   62911028202421380000000000029850000000029850002000000010410409050751021841125001100905651211441247   1030000500030000   555610115761104519000013506MarketplaceMyanmarPlaz Branch        MMR11009050751021841120905000000000000000   10300001 00104100000000001791000000000000     
100   95030301100315070000000000056961000000056961002000000010410409050759341844355001100905141311449247   1030000500030000   555610103481104519000003432City Mart Junction Zaw na 8          MMR11009050759341844350905000000000000000   10300001 00104100000000003418000000000000     
100   62911028202065620000000000006000000000006000002000000010410409050327252160425001100905926570925247   1030000900030000   591219000508190110000000355Shwe Ohh Pharmacy(SanP YANGONNGKUUN  MMR11009050327252160420905000000000000000   10300001F00104100000000000360000000000000     
100   62911028202266930000000000051000000000051000002000000010410409050441102181755001100905823111110247   1030000900030000   554119001103190110000000215New Day Energy MYG     YANGONONE     MMR11009050441102181750905000000000000000   10300001F00104100000000001530000000000000     
100   95050321204334990000000000024750000000024750002000000010410409050600412204456726120905811301241247   1030000900030000   541119000835190110000000657Sein Gay Har (Time Cit YANGONUT      MMR11009050600412204450905000000000000000   10300001F00104100000000006188000000000000     
100   62911028202181120000000000048100000000048100002000000010410409051026581896895001100905752581627247   1030000500030000   555610118973104519000016137City Mart South Okkala WZYD BR       MMR11009051026581896890905000000000000000   10300001 00104100000000002886000000000000     
100   62911028202112730000000000065500000000065500002000000010410409051038131901465001100905498121752247   1030000500030000   555610112249104519000010487Ocean Super Center St  ohn           MMR11009051038131901460905000000000000000   10300001 00104100000000003930000000000000     
100   62911028202031710000000000025000000000025000002000000010410409050815591863445001100905845251525247   1030000500030000   888810111230104519000009667Max Energy CoLtd 6                   MMR11009050815591863440905000000000000000   10300001 00104100000000000750000000000000     
100   95030301100338180000000000094700000000094700002000000010410409050855381864775001100905037281541247   1030000500030000   555610110558104519000009163City Mart Ayeyarwon Br nch           MMR11009050855381864770905000000000000000   10300001 00104100000000005682000000000000     
100   95030302100067550000000000002000000000002000002000000010410409050823301878135001100905997071606247   1030000500030000   555610103956104519000003818Ocean Oattara Thiri Na PyiTaw        MMR11009050823301878130905000000000000000   10300001 00104100000000000120000000000000     
