100   35710830106654290000000000124830000000124830002000000010410402110901500010667011110211204215001066   1030000100030000   541160000001777031200000006MOB BANK               YGN           MMR11002110901500010660211000000000000000   10300003 00104100000000000000000000024966     
100   9503051889221202000000000000378000000000378000200000001041040211095517000957TN9DRK0211204216000957   1030000100030000   581250000001777031200000005MOB BANK               YGN           MMR11002110955170009570211000000000000000   10300002 00104100000000000000000000001285     
100   35710830128651750000000000015840000000015840002000000010410402111124210009587866210211204217000958   1030000100030000   581250000001777031200000005MOB BANK               YGN           MMR11002111124210009580211000000000000000   10300003 00104100000000000000000000005386     
100   9503051892448651000000000005000000000005000000200000001041040211065426000414NLTWK30211204213000414   1030000100030000   541120000008777031200000002MOB BANK               YGN           MMR11002110654260004140211000000000000000   10300002 00104100000000000000000000010000     
100   35710500143130250000000000096000000000096000002000000010410402101116060010647951890210204117001064   1030000100030000   541160000001777031200000006MOB BANK               YGN           MMR11002101116060010640210000000000000000   10300005 00104100000000000000000000019200     
100   9503051024213619000000000004850000000004850000200000001041040210024525000247TG6EVP0210204109000247   1030000100030000   541120000007777031200000002MOB BANK               YGN           MMR11002100245250002470210000000000000000   10300002 00104100000000000000000000009700     
100   9503051883998433000000000016200000000016200000200000001041040210111418001061757OPF0210204117001061   1030000100030000   541160000001777031200000006MOB BANK               YGN           MMR11002101114180010610210000000000000000   10300002 00104100000000000000000000032400     
