100   62911028202328650000000000005150000000005150002000000010410402110625470265002184800211906551243041   1030000500030000   555610114571104519000012532City Mart Ahlone Branc               MMR11002110625470265000211000000000000000   10300001 00104100000000000309000000000000     
100   62911028202110420000000000003700000000003700002000000010410402110647170269682184800211547241333041   1030000500030000   555610103463104519000003420City Mart Yankin Cente 2             MMR11002110647170269680211000000000000000   10300001 00104100000000000222000000000000     
100   62911028202417260000000000007800000000007800002000000010410402111612260179542184800211000742772204   1030000200030000   541188001040000008000000010KBZ BANK               MARKETPLACE - MMR11002111612260179540211000000000000000   10300001 00104100000000000468000000000000     
100   95050316067768680000000000000980000000000980002000000010410402111232190219076786530211000006631481   1020000200030000   333400010001204104000000281Myanmar Soft-Gate Tech Yangon        MMR11002111232190219070211000000000000000   10300001F05104100000000000206000000000000     
100   62443100379116470000000000011807000000011807002000000010410402111724520264282850230211000742775930   1030000200030000   541188001025000008000000298KBZ BANK               CITY MART - M MMR11002111724520264280211000000000000000   10300001 00104100000000002952000000000000     
100   62911028202116610000000000050000000000050000002000000010410402110710050280532184800211091351431041   1030000500030000   888810111244104519000009671Max Energy CoLtd 10                  MMR11002110710050280530211000000000000000   10300001 00104100000000001500000000000000     
100   62911028202161240000000000023518000000023518002000000010410402111034330263752184800211000742750142   1030000200030000   541188001025000008000000298KBZ BANK               CITY MART - M MMR11002111034330263750211000000000000000   10300001 00104100000000001411000000000000     
100   95050321111333300000000000900000000000900000002000000010410402110413100243786471120211069411057041   1030000300030000   444410103434104519000003392CHRY FO1                             MMR11002110413100243780211000000000000000   10300001 00104100000000382500000000000000     
100   95050319391394380000000000002684000000002684002000000010410402110941350296045198590211179111625041   1030000500030000   555610110599104519000009166City Mart 47 Branch                  MMR11002110941350296040211000000000000000   10300001 00104100000000000671000000000000     
100   62911028202668140000000000096150000000096150002000000010410402110801040279712184800211982291456041   1030000300030000   555510124691104519000020166Makro Myanmar                        MMR11002110801040279710211000000000000000   10300001 00104100000000005769000000000000     
100   62911028202158290000000000005300000000005300002000000010410402110857360288602184800211174271541041   1030000500030000   555610114573104519000012532City Mart Ahlone Branc               MMR11002110857360288600211000000000000000   10300001 00104100000000000318000000000000     
100   62443100323428970000000000105500000000105500002000000010410402110350250240700523050211674201010041   1030000300030000   555510124697104519000020166Makro Myanmar                        MMR11002110350250240700211000000000000000   10300001 00104100000000025320000000000000     
100   62911028202448030000000000050000000000050000002000000010410402110456300250342184800211952261108041   1030000300030000   888810125458104519000021285Shwe Taung Energy CoLt               MMR11002110456300250340211000000000000000   10300001 00104100000000001500000000000000     
100   95050327243132200000000000015300000000015300002000000010410402110621460264133741190211788501259041   1030000300030000   555610103643104519000003559Capital Hypermarket Da bon           MMR11002110621460264130211000000000000000   10300001 00104100000000003825000000000000     
100   95030310098554020000000000025667000000025667002000000010410402110242020233692184800211820100950041   1030000300030000   444410125393104519000021220Myanmar Bakery CoLtd                 MMR11002110242020233690211000000000000000   10300001 00104100000000002618000000000000     
100   95050312160676580000000000001960000000001960002000000010410402110232270227208324300211000006625409   1020000200030000   333400010001204104000000281Myanmar Soft-Gate Tech Yangon        MMR11002110232270227200211000000000000000   10300001F05104100000000000412000000000000     
100   95030308126250020000000000006600000000006600002000000010410402110719560274192184800211162531333041   1030000500030000   555610103981104519000003818Ocean Oattara Thiri Na PyiTaw        MMR11002110719560274190211000000000000000   10300001 00104100000000000396000000000000     
100   62443100333488440000000000005800000000005800002000000010410402110915590292670518310211708521529041   1030000500030000   555610121914104519000018359City Express MCS 114                 MMR11002110915590292670211000000000000000   10300001 00104100000000001450000000000000     
100   95050318694773110000000000000980000000000980002000000010410402111432030203884708560211000006632277   1020000200030000   333400010001204104000000281Myanmar Soft-Gate Tech Yangon        MMR11002111432030203880211000000000000000   10300001F05104100000000000206000000000000     
100   62911028202193670000000000290069000000290069002000000010410402110739050905882184800211000006628809   1010000100030000   333500010001212104000002840Internal Revenue Depar Yangon        MMR11002110739050905880211000000000000000   10300001F05104100000000060000000000000000     
100   95050313145843230000000000150000000000150000002000000010410402110255172517350734620211000006625677   1030000200030000   333800010001203104000003327KBZPay                 Yangon        MMR11002110255172517350211000000000000000   10300001F05104100000000031500000000000000     
100   95050312940629360000000000001960000000001960002000000010410402111114374437757126910211000006630968   1020000200030000   333400010001204104000000281Myanmar Soft-Gate Tech Yangon        MMR11002111114374437750211000000000000000   10300001F05104100000000000412000000000000     
100   95050318694773110000000000000980000000000980002000000010410402111434560456326361050211000006632298   1020000200030000   333400010001204104000000281Myanmar Soft-Gate Tech Yangon        MMR11002111434560456320211000000000000000   10300001F05104100000000000206000000000000     
100   95050315122972560000000000002940000000002940002000000010410402111437220722966119550211000006632319   1020000200030000   333400010001204104000000281Myanmar Soft-Gate Tech Yangon        MMR11002111437220722960211000000000000000   10300001F05104100000000000617000000000000     
100   95050314703432410000000000000980000000000980002000000010410402110950552055934844400211000006630317   1020000200030000   333400010001204104000000281Myanmar Soft-Gate Tech Yangon        MMR11002110950552055930211000000000000000   10300001F05104100000000000206000000000000     
100   62443100364681690000000000300000000000300000002000000010410402111402333233811488690211000006632094   1030000200030000   333800010001203104000003327KBZPay                 Yangon        MMR11002111402333233810211000000000000000   10300001F05104100000000063000000000000000     
100   95050312878706670000000000001000000000001000002000000010410402110611414141856156190211000006627920   1030000200030000   3334000100012031040000040102C2P (Myanmar) Co. Ltd Yangon        MMR11002110611414141850211000000000000000   10300001F05104100000000000210000000000000     
100   95050314996291580000000000002940000000002940002000000010410402110314034403809957330211000006625936   1020000200030000   333400010001204104000000281Myanmar Soft-Gate Tech Yangon        MMR11002110314034403800211000000000000000   10300001F05104100000000000617000000000000     
100   95050316997303010000000000000980000000000980002000000010410402111316054605726105760211000006631762   1020000200030000   333400010001204104000000281Myanmar Soft-Gate Tech Yangon        MMR11002111316054605720211000000000000000   10300001F05104100000000000206000000000000     
100   95050319156011610000000000004900000000004900002000000010410402110236050605025700140211000006625447   1020000200030000   333400010001204104000000281Myanmar Soft-Gate Tech Yangon        MMR11002110236050605020211000000000000000   10300001F05104100000000001029000000000000     
100   95050311959900780000000000000980000000000980002000000010410402111545221522981077000211000006632653   1020000200030000   333400010001204104000000281Myanmar Soft-Gate Tech Yangon        MMR11002111545221522980211000000000000000   10300001F05104100000000000206000000000000     
100   95050312210363590000000000020000000000020000002000000010410402111059042904488864490211000006630859   1030000200030000   333800010001203104000003327KBZPay                 Yangon        MMR11002111059042904480211000000000000000   10300001F05104100000000004200000000000000     
100   95050314401921990000000000000980000000000980002000000010410402111404463446421403590211000006632107   1020000200030000   333400010001204104000000281Myanmar Soft-Gate Tech Yangon        MMR11002111404463446420211000000000000000   10300001F05104100000000000206000000000000     
100   95050318601641810000000000000979000000000979002000000010410402110136260626665555150211000006624976   1020000200030000   333400010001204104000000281Myanmar Soft-Gate Tech Yangon        MMR11002110136260626660211000000000000000   10300001F05104100000000000205000000000000     
100   95050313113158460000000000004900000000004900002000000010410402110939300930710872460211000006630247   1020000200030000   333400010001204104000000281Myanmar Soft-Gate Tech Yangon        MMR11002110939300930710211000000000000000   10300001F05104100000000001029000000000000     
100   62911028202809060000000000300000000000300000002000000010410402110143321332122184800211000006625029   1030000200030000   333800010001203104000003327KBZPay                 Yangon        MMR11002110143321332120211000000000000000   10300001F05104100000000063000000000000000     
100   95030301100155910000000000050000000000050000002000000010410402110156032603402184800211000006625130   1030000200030000   333800010001203104000003327KBZPay                 Yangon        MMR11002110156032603400211000000000000000   10300001F05104100000000010500000000000000     
100   95050315122972560000000000001960000000001960002000000010410402111156372637523651750211000006631257   1020000200030000   333400010001204104000000281Myanmar Soft-Gate Tech Yangon        MMR11002111156372637520211000000000000000   10300001F05104100000000000412000000000000     
100   62443100364681690000000000300000000000300000002000000010410402111400353035114793660211000006632055   1030000200030000   333800010001203104000003327KBZPay                 Yangon        MMR11002111400353035110211000000000000000   10300001F05104100000000063000000000000000     
100   62911028202077010000000000001960000000001960002000000010410402110509193919422184800211000006627247   1020000200030000   333400010001204104000000281Myanmar Soft-Gate Tech Yangon        MMR11002110509193919420211000000000000000   10300001F05104100000000000412000000000000     
100   95050325646370920000000000004900000000004900002000000010410402110910354035554449530211000006629977   1020000200030000   333400010001204104000000281Myanmar Soft-Gate Tech Yangon        MMR11002110910354035550211000000000000000   10300001F05104100000000001029000000000000     
100   95030339867270590000000000021100000000021100002000000010410402111150380321462184800211681191825041   1030000500030000   555610118967104519000016137City Mart South Okkala WZYD BR       MMR11002111150380321460211000000000000000   10300001 00104100000000001266000000000000     
100   62911028202114550000000000200000000000200000002000000010410402110353202320092184800211000006626397   1030000200030000   333800010001203104000003327KBZPay                 Yangon        MMR11002110353202320090211000000000000000   10300001F05104100000000042000000000000000     
100   95050312210363590000000000027000000000027000002000000010410402110101363136545200960211000006624845   1030000200030000   333800010001203104000003327KBZPay                 Yangon        MMR11002110101363136540211000000000000000   10300001F05104100000000005670000000000000     
100   95050316785465380000000000000980000000000980002000000010410402110311464146328680860211000006625904   1020000200030000   333400010001204104000000281Myanmar Soft-Gate Tech Yangon        MMR11002110311464146320211000000000000000   10300001F05104100000000000206000000000000     
100   95050327531396450000000000000980000000000980002000000010410402110947591759475624100211000006630304   1020000200030000   333400010001204104000000281Myanmar Soft-Gate Tech Yangon        MMR11002110947591759470211000000000000000   10300001F05104100000000000206000000000000     
100   95050315122972560000000000002940000000002940002000000010410402110655372537580479950211000006628467   1020000200030000   333400010001204104000000281Myanmar Soft-Gate Tech Yangon        MMR11002110655372537580211000000000000000   10300001F05104100000000000617000000000000     
100   95050318601641810000000000000979000000000979002000000010410402110959572957509285870211000006630380   1020000200030000   333400010001204104000000281Myanmar Soft-Gate Tech Yangon        MMR11002110959572957500211000000000000000   10300001F05104100000000000205000000000000     
100   95050310314438940000000000022000000000022000002000000010410402111313494349507843340211000006631750   1030000200030000   333800010001203104000003327KBZPay                 Yangon        MMR11002111313494349500211000000000000000   10300001F05104100000000004620000000000000     
100   95050314703432410000000000000980000000000980002000000010410402110941331133004347630211000006630257   1020000200030000   333400010001204104000000281Myanmar Soft-Gate Tech Yangon        MMR11002110941331133000211000000000000000   10300001F05104100000000000206000000000000     
100   95030301100076300000000000004000000000004000002000000010410402110956082608052184800211000006630342   1030000200030000   333800010001203104000003327KBZPay                 Yangon        MMR11002110956082608050211000000000000000   10300001F05104100000000000840000000000000     
100   95050313836159580000000000001000000000001000002000000010410402110852412241328037230211000006629820   1030000200030000   3334000100012031040000040102C2P (Myanmar) Co. Ltd Yangon        MMR11002110852412241320211000000000000000   10300001F05104100000000000210000000000000     
100   62443100364681690000000000300000000000300000002000000010410402111401383138276446140211000006632083   1030000200030000   333800010001203104000003327KBZPay                 Yangon        MMR11002111401383138270211000000000000000   10300001F05104100000000063000000000000000     
100   95050311382087030000000000055000000000055000002000000010410402110412354235644733540211000006626603   1030000200030000   333800010001203104000003327KBZPay                 Yangon        MMR11002110412354235640211000000000000000   10300001F05104100000000011550000000000000     
100   95050317465574180000000000010000000000010000002000000010410402111138360836640091500211000006631122   1030000200030000   333800010001203104000003327KBZPay                 Yangon        MMR11002111138360836640211000000000000000   10300001F05104100000000002100000000000000     
100   62911028202078000000000000100000000000100000002000000010410402111058292829482184800211000006630854   1030000200030000   333800010001203104000003327KBZPay                 Yangon        MMR11002111058292829480211000000000000000   10300001F05104100000000021000000000000000     
100   95050311077567400000000000000980000000000980002000000010410402110759392939768101790211000006629253   1020000200030000   333400010001204104000000281Myanmar Soft-Gate Tech Yangon        MMR11002110759392939760211000000000000000   10300001F05104100000000000206000000000000     
100   95050315743141220000000000000980000000000980002000000010410402110306113611464989440211000006625812   1020000200030000   333400010001204104000000281Myanmar Soft-Gate Tech Yangon        MMR11002110306113611460211000000000000000   10300001F05104100000000000206000000000000     
100   62443100364681690000000000100000000000100000002000000010410402111404203420443141180211000006632106   1030000200030000   333800010001203104000003327KBZPay                 Yangon        MMR11002111404203420440211000000000000000   10300001F05104100000000021000000000000000     
100   95050313145843230000000000100000000000100000002000000010410402110304223422857613600211000006625779   1030000200030000   333800010001203104000003327KBZPay                 Yangon        MMR11002110304223422850211000000000000000   10300001F05104100000000021000000000000000     
100   95050314996291580000000000000980000000000980002000000010410402110317084708633929270211000006625955   1020000200030000   333400010001204104000000281Myanmar Soft-Gate Tech Yangon        MMR11002110317084708630211000000000000000   10300001F05104100000000000206000000000000     
100   62911028202077190000000000001960000000001960002000000010410402110539140914652184800211000006627557   1020000200030000   333400010001204104000000281Myanmar Soft-Gate Tech Yangon        MMR11002110539140914650211000000000000000   10300001F05104100000000000412000000000000     
100   95050317284600370000000000035000000000035000002000000010410402111343081308308183720211000006631955   1030000200030000   333800010001203104000003327KBZPay                 Yangon        MMR11002111343081308300211000000000000000   10300001F05104100000000007350000000000000     
100   95050316049877640000000000002940000000002940002000000010410402110145021502019455780211000006625040   1020000200030000   333400010001204104000000281Myanmar Soft-Gate Tech Yangon        MMR11002110145021502010211000000000000000   10300001F05104100000000000617000000000000     
100   95050311926829590000000000000980000000000980002000000010410402111356432643396531240211000006632048   1020000200030000   333400010001204104000000281Myanmar Soft-Gate Tech Yangon        MMR11002111356432643390211000000000000000   10300001F05104100000000000206000000000000     
100   62443100330105920000000000005000000000005000002000000010410402110600393039247503970211000006627791   1030000200030000   333800010001203104000003327KBZPay                 Yangon        MMR11002110600393039240211000000000000000   10300001F05104100000000001050000000000000     
100   95050316818236190000000000000980000000000980002000000010410402111215264526630261690211000006631389   1020000200030000   333400010001204104000000281Myanmar Soft-Gate Tech Yangon        MMR11002111215264526630211000000000000000   10300001F05104100000000000206000000000000     
100   62911028202448030000000000042680000000042680002000000010410402111042580307692184800211770111754041   1030000300030000   444410104767104519000004503CHRY Lbylounge                       MMR11002111042580307690211000000000000000   10300001 00104100000000004353000000000000     
100   62911028202449440000000000060000000000060000002000000010410402111145120320752184800211588151817041   1030000500030000   888810121685104519000009666Max Energy CoLtd 5                   MMR11002111145120320750211000000000000000   10300001 00104100000000001800000000000000     
100   95050318646071770000000000001960000000001960002000000010410402110957572757251652160211000006630353   1020000200030000   333400010001204104000000281Myanmar Soft-Gate Tech Yangon        MMR11002110957572757250211000000000000000   10300001F05104100000000000412000000000000     
100   95050324773225760000000000050000000000050000002000000010410402111411134113473056080211000006632134   1030000200030000   333800010001203104000003327KBZPay                 Yangon        MMR11002111411134113470211000000000000000   10300001F05104100000000010500000000000000     
100   95030301100122420000000000030000000000030000002000000010410402111311134113812184800211000006631728   1030000200030000   333800010001203104000003327KBZPay                 Yangon        MMR11002111311134113810211000000000000000   10300001F05104100000000006300000000000000     
100   95050318601641810000000000000538000000000538002000000010410402110137430743495129650211000006624987   1020000200030000   333400010001204104000000281Myanmar Soft-Gate Tech Yangon        MMR11002110137430743490211000000000000000   10300001F05104100000000000113000000000000     
100   95030372959497420000000000020000000000020000002000000010410402111148591859562184800211000006631203   1030000200030000   333800010001203104000003327KBZPay                 Yangon        MMR11002111148591859560211000000000000000   10300001F05104100000000004200000000000000     
100   95050313123223200000000000000980000000000980002000000010410402111111344134817212010211000006630953   1020000200030000   333400010001204104000000281Myanmar Soft-Gate Tech Yangon        MMR11002111111344134810211000000000000000   10300001F05104100000000000206000000000000     
100   62911028202193670000000000011431000000011431002000000010410402110754292429402184800211000006629070   1010000100030000   333500010001212104000002840Internal Revenue Depar Yangon        MMR11002110754292429400211000000000000000   10300001F05104100000000060000000000000000     
100   62911028202809060000000000300000000000300000002000000010410402110140051005092184800211000006625001   1030000200030000   333800010001203104000003327KBZPay                 Yangon        MMR11002110140051005090211000000000000000   10300001F05104100000000063000000000000000     
100   95030301100122420000000000100000000000100000002000000010410402110602023202122184800211000006627799   1030000200030000   333800010001203104000003327KBZPay                 Yangon        MMR11002110602023202120211000000000000000   10300001F05104100000000021000000000000000     
100   95050312641885210000000000000980000000000980002000000010410402111457162716521162100211000006632445   1020000200030000   333400010001204104000000281Myanmar Soft-Gate Tech Yangon        MMR11002111457162716520211000000000000000   10300001F05104100000000000206000000000000     
100   95050318601641810000000000000980000000000980002000000010410402111503243324372814580211000006632482   1020000200030000   333400010001204104000000281Myanmar Soft-Gate Tech Yangon        MMR11002111503243324370211000000000000000   10300001F05104100000000000206000000000000     
100   95050310652791070000000000005000000000005000002000000010410402111155582558461999270211000006631256   1030000200030000   333800010001203104000003327KBZPay                 Yangon        MMR11002111155582558460211000000000000000   10300001F05104100000000001050000000000000     
100   95030301100122420000000000058510000000058510002000000010410402100249220015512184800210000329825875   1030000300030000   806200000197000000000000097CB BANK                AUNG YADANA H MMR11002100249220015510210000000000000000   10300001F00104100000000003511000000000000     
100   95050323233042810000000000000980000000000980002000000010410402111553352335392729480211000006632687   1020000200030000   333400010001204104000000281Myanmar Soft-Gate Tech Yangon        MMR11002111553352335390211000000000000000   10300001F05104100000000000206000000000000     
100   95050312867570630000000000005000000000005000002000000010410402110524535453463743550211000006627419   1030000400030000   3333000100012051040000003312c2p(Myanmar)Company L Yangon        MMR11002110524535453460211000000000000000   10300001F05104100000000010000000000000000     
100   95050317915469510000000000100000000000100000002000000010410402111037230006037637490211000742775067   1030000200030000   599988000603000008000003448KBZ BANK               SWEETY HOME(6 MMR11002111037230006030211000000000000000   10300001 00104100000000024000000000000000     
100   95050316231020800000000000080000000000080000002000000010410402111038200006042680040211000742775110   1030000200030000   599988000603000008000003448KBZ BANK               SWEETY HOME(6 MMR11002111038200006040211000000000000000   10300001 00104100000000019200000000000000     
100   95050321237170130000000000059550000000059550002000000010410402111243350022656581690211000742759309   1030000200030000   541188001002000008000000008KBZ BANK               MARKETPLACE - MMR11002111243350022650211000000000000000   10300001 00104100000000014888000000000000     
100   62911028202249530000000000016400000000016400002000000010410402111311490054432184800211000742761123   1030000200030000   541188001282000008000000319KBZ BANK               NEIGHBOURHOOD MMR11002111311490054430211000000000000000   10300001 00104100000000000984000000000000     
100   62911028202150190000000000259540000000259540002000000010410402111718360016672184800211000742775602   1030000200030000   569188001714000008000001078KBZ BANK               LEVI'S (JUNCT MMR11002111718360016670211000000000000000   10300001 00104100000000015572000000000000     
100   95050314327553180000000000010000000000010000002000000010410402110730210021332750010211000006628895   1030000200030000   333800010001203104000003327KBZPay                 Yangon        MMR11002110730210021330211000000000000000   10300001F05104100000000002100000000000000     
100   95050319067144780000000000006278000000006278002000000010410402111611460039634773130211000742772178   1030000200030000   541188001420000008000000401KBZ BANK               OCEAN SUPERCE MMR11002111611460039630211000000000000000   10300001 00104100000000001570000000000000     
100   95050320093758110000000000030600000000030600002000000010410402111804480071353396460211000742777810   1030000200030000   541188001361000008000000395KBZ BANK               OCEAN SUPERMA MMR11002111804480071350211000000000000000   10300001 00104100000000007650000000000000     
100   62443100328876850000000000021600000000021600002000000010410402111530460111164378260211000742769995   1030000200030000   541188001306000008000000325KBZ BANK               CITY MART - A MMR11002111530460111160211000000000000000   10300001 00104100000000005400000000000000     
100   62443100328876850000000000009700000000009700002000000010410402111531380111173285980211000742770032   1030000200030000   541188001306000008000000325KBZ BANK               CITY MART - A MMR11002111531380111170211000000000000000   10300001 00104100000000002425000000000000     
100   95030318100004530000000000021850000000021850002000000010410402111045090015942184800211000742750944   1030000200030000   541188001438000008000000401KBZ BANK               OCEAN SUPERCE MMR11002111045090015940211000000000000000   10300001 00104100000000001311000000000000     
100   95050313843656520000000000053600000000053600002000000010410402110711370002650551260211000742763070   1030000200030000   569988000802000008000004611KBZ BANK               S33-IPANEMA   MMR11002110711370002650211000000000000000   10300001 00104100000000012864000000000000     
100   62911028202496790000000000062550000000062550002000000010410402111132090022522184800211000742754376   1030000200030000   541188001002000008000000008KBZ BANK               MARKETPLACE - MMR11002111132090022520211000000000000000   10300001 00104100000000003753000000000000     
100   62911028202265290000000000024550000000024550002000000010410402111636440078322184800211000742773403   1030000200030000   541188001256000008000000310KBZ BANK               CITY MART- FM MMR11002111636440078320211000000000000000   10300001 00104100000000001473000000000000     
100   95050313482452630000000000300000000000300000002000000010410402110908570000720974400211000742770430   1030000200030000   594488000253000008000002280KBZ BANK               PWINT HTUN GO MMR11002110908570000720211000000000000000   10300001 00104100000000072000000000000000     
100   62911028202442410000000000004650000000004650002000000010410402111226520106372184800211000742758176   1030000200030000   541188001073000008000000294KBZ BANK               CITY MART - J MMR11002111226520106370211000000000000000   10300001 00104100000000000279000000000000     
100   95050319148803370000000000250000000000250000002000000010410402110921180000743142520211000742771101   1030000200030000   594488000253000008000002280KBZ BANK               PWINT HTUN GO MMR11002110921180000740211000000000000000   10300001 00104100000000060000000000000000     
100   95050316067768680000000000002940000000002940002000000010410402111230570057415134050211000006631471   1020000200030000   333400010001204104000000281Myanmar Soft-Gate Tech Yangon        MMR11002111230570057410211000000000000000   10300001F05104100000000000617000000000000     
100   62911028202221220000000000009000000000009000002000000010410402110902140003102184800211000742770053   1030000200030000   541188000964000008000004930KBZ BANK               EASY-5        MMR11002110902140003100211000000000000000   10300001 00104100000000000540000000000000     
100   95050321237170130000000000018200000000018200002000000010410402111240130022630482320211000742759056   1030000200030000   541188001002000008000000008KBZ BANK               MARKETPLACE - MMR11002111240130022630211000000000000000   10300001 00104100000000004550000000000000     
100   95030327835334700000000000011868000000011868002000000010410402111809380030282184800211000742778080   1030000200030000   541188001243000008000000323KBZ BANK               CITY MART - I MMR11002111809380030280211000000000000000   10300001 00104100000000000712000000000000     
100   62911028202221220000000000001650000000001650002000000010410402110904040003112184800211000742770136   1030000200030000   541188000964000008000004930KBZ BANK               EASY-5        MMR11002110904040003110211000000000000000   10300001 00104100000000000099000000000000     
100   95050319902033540000000000045900000000045900002000000010410402111207500095092184250211000742756817   1030000200030000   541188001129000008000000296KBZ BANK               CITY MART - J MMR11002111207500095090211000000000000000   10300001 00104100000000011475000000000000     
100   62911028202417260000000000024944000000024944002000000010410402111603360188362184800211000742771779   1030000200030000   541188001038000008000000010KBZ BANK               MARKETPLACE - MMR11002111603360188360211000000000000000   10300001 00104100000000001497000000000000     
100   62911028202667150000000000036000000000036000002000000010410402110536240256872184800211787061227041   1030000300030000   555510124871104519000020166Makro Myanmar                        MMR11002110536240256870211000000000000000   10300001 00104100000000002160000000000000     
100   62911028202680670000000000032000000000032000002000000010410402110457190251532184800211099331132041   1030000500030000   888810111230104519000009667Max Energy CoLtd 6                   MMR11002110457190251530211000000000000000   10300001 00104100000000000960000000000000     
100   95030301100120850000000000006940000000006940002000000010410402110554430259642184800211168231258041   1030000500030000   555610112256104519000010487Ocean Super Center St  ohn           MMR11002110554430259640211000000000000000   10300001 00104100000000000416000000000000     
100   95030301100128610000000000100000000000100000002000000010410402110532140214632184800211000006627497   1030000200030000   333800010001203104000003327KBZPay                 Yangon        MMR11002110532140214630211000000000000000   10300001F05104100000000021000000000000000     
100   95050313240335680000000000020850000000020850002000000010410402101029310000844982670210204116000084   1030000500030000   531120155702000045311201557GAMONE PWINT           PTN           MMR11002101029310000840210000000000000000   10300001 00104100000000005004000000000000     
100   95050329581164220000000000095000000000095000002000000010410402101240120007622394130210204119000762   1030001300030000   555500000047700000000000035SHWEBANK BANK          959           MMR11002101240120007620210000000000000000   10300001 00104100000000022800000000000000     
100   62443100372360940000000000052382000000052382002000000010410402100033240051849023570210204107005184   1030000500030000   598320041903000055983200419MAX ENERGY             PTN           MMR11002100033240051840210000000000000000   10300001 00104100000000006286000000000000     
100   62911028202421380000000000056000000000056000002000000010410402100255320131372184800210204109013137   1030000500030000   598320001902000015172200019MAX ENERGY             PTN           MMR11002100255320131370210000000000000000   10300001 00104100000000001680000000000000     
100   62911028202023630000000000088000000000088000002000000010410402100447210136552184800210204104013655   1030000600030000   554100000747315799420000325DENKO MDY 26           YANGON        MMR11002100447210136550210000000000000000   10300001 00104100000000002640000000000000     
100   62911028202107700000000000071000000000071000002000000010410402100102080168572184800210204107016857   1030000500030000   598320001202000015172200012MAX ENERGY             PTN           MMR11002100102080168570210000000000000000   10300001 00104100000000002130000000000000     
100   62911028202448030000000000030000000000030000002000000010410402100136150168612184800210204108016861   1030000500030000   598320001202000015172200012MAX ENERGY             PTN           MMR11002100136150168610210000000000000000   10300001 00104100000000000900000000000000     
100   62911028202143500000000000012864000000012864002000000010410402100007540132592184800210204106013259   1030000500030000   598320002102000015172200021MAX ENERGY             PTN           MMR11002100007540132590210000000000000000   10300001 00104100000000000386000000000000     
100   62911028202143500000000000048000000000048000002000000010410402092344470128342184800210204106012834   1030000500030000   598320002101000015172200021MAX ENERGY             PTN           MMR11002092344470128340210000000000000000   10300001 00104100000000001440000000000000     
100   95050325925517520000000000021000000000021000002000000010410402100824360153879380110210204114015387   1030000500030000   598320001601000015172200016MAX ENERGY             PTN           MMR11002100824360153870210000000000000000   10300001 00104100000000002520000000000000     
100   62443100372702000000000000033000000000033000002000000010410402100836520165542004300210204115016554   1030000500030000   598320001201000015172200012MAX ENERGY             PTN           MMR11002100836520165540210000000000000000   10300001 00104100000000003960000000000000     
100   62443100311760720000000000048500000000048500002000000010410402101102340526902989810210204111052690   1030000600030000   554100002085315799420000471DENKO BAHAN            YANGON        MMR11002101102340526900210000000000000000   10300001 00104100000000005820000000000000     
100   62911028202489110000000000064000000000064000002000000010410402100105500643922184800210204101064392   1030000600030000   554100000946315799420000471DENKO BAHAN            YANGON        MMR11002100105500643920210000000000000000   10300001 00104100000000001920000000000000     
100   95050321232876860000000000063000000000063000002000000010410402100851150301080777300210204108030108   1030000600030000   554100001865315799420001235DENKO NAY PYI TAW 2    NAYPYITAW     MMR11002100851150301080210000000000000000   10300001 00104100000000007560000000000000     
100   95050311876202380000000000042500000000042500002000000010410402101031280301176124580210204110030117   1030000600030000   554100001865315799420001235DENKO NAY PYI TAW 2    NAYPYITAW     MMR11002101031280301170210000000000000000   10300001 00104100000000005100000000000000     
100   62911028202409750000000000052000000000052000002000000010410402092325480196502184800210204123019650   1030000600030000   554100002086315799420001136DENKOHLAING THAR YAR   YANGON        MMR11002092325480196500210000000000000000   10300001 00104100000000001560000000000000     
100   62911028202181120000000000051000000000051000002000000010410402100434500566652184800210204104056665   1030000600030000   554100000957315799420000480DENKO N.DAGON - 3      YANGON        MMR11002100434500566650210000000000000000   10300001 00104100000000001530000000000000     
100   62443100364681690000000000300000000000300000002000000010410402110623295329182890220211000006628077   1030000200030000   333800010001203104000003327KBZPay                 Yangon        MMR11002110623295329180211000000000000000   10300001F05104100000000063000000000000000     
100   95030308100042590000000000659000000000659000002000000010410402110926337355402184800211677561533041   1030000900030000   541119000616190110000000452Pro(1) Global-Hlaing T YANGONTHARYA  MMR11002110926337355400211000000000000000   10300001F00104100000000039540000000000000     
100   62911028202045260000000000001500000000001500002000000010410402110228497248702184800211917580849041   1030000900030000   591219000504190110000000351Shwe Ohh Pharmacy - (Y YANGONAW      MMR11002110228497248700211000000000000000   10300001F00104100000000000090000000000000     
100   62443100364681690000000000100000000000100000002000000010410402111129115911642339660211000006631076   1030000200030000   333800010001203104000003327KBZPay                 Yangon        MMR11002111129115911640211000000000000000   10300001F05104100000000021000000000000000     
100   95050316997303010000000000001960000000001960002000000010410402111127195719769034690211000006631059   1020000200030000   333400010001204104000000281Myanmar Soft-Gate Tech Yangon        MMR11002111127195719760211000000000000000   10300001F05104100000000000412000000000000     
100   95050312498129060000000000002940000000002940002000000010410402111329395939762800790211000006631851   1020000200030000   333400010001204104000000281Myanmar Soft-Gate Tech Yangon        MMR11002111329395939760211000000000000000   10300001F05104100000000000617000000000000     
100   95050317176867660000000000001960000000001960002000000010410402110721485148163175470211000006628784   1020000200030000   333400010001204104000000281Myanmar Soft-Gate Tech Yangon        MMR11002110721485148160211000000000000000   10300001F05104100000000000412000000000000     
100   95030378062733680000000000014466000000014466002000000010410402110657357314502184800211390271335041   1030000900030000   541119001327190110000000971Ocean Junction NPT C 5 NAYPYITAW     MMR11002110657357314500211000000000000000   10300001F00104100000000000868000000000000     
100   95050315259054570000000000000980000000000980002000000010410402110328285828749885970211000006626095   1020000200030000   333400010001204104000000281Myanmar Soft-Gate Tech Yangon        MMR11002110328285828740211000000000000000   10300001F05104100000000000206000000000000     
100   95050321455580800000000000023401000000023401002000000010410402110405517269732995970211924351051041   1030000900030000   541119001349190110000000977Ocean PZD C 3          YANGONAUNG    MMR11002110405517269730211000000000000000   10300001F00104100000000005851000000000000     
100   62443100379321630000000000035100000000035100002000000010410402110802167332638814900211423321416041   1030000900030000   541119001255190110000000956City Mart JS Season C  YANGONUT      MMR11002110802167332630211000000000000000   10300001F00104100000000008775000000000000     
100   62443100392426520000000000030000000000030000002000000010410402111021185118622050550211000006630590   1030000200030000   333800010001203104000003327KBZPay                 Yangon        MMR11002111021185118620211000000000000000   10300001F05104100000000006300000000000000     
100   95050316385053500000000000007500000000007500002000000010410402110939337358913922170211875091633041   1030000900030000   541119001165190110000000930OCEAN HTY C 15         YANGONTHARYA  MMR11002110939337358910211000000000000000   10300001F00104100000000001875000000000000     
100   62911028202112080000000000018100000000018100002000000010410402110254157253582184800211123240915041   1030000900030000   541119001464190110000000077Sein Gay Har Chinatown YANGON        MMR11002110254157253580211000000000000000   10300001F00104100000000001086000000000000     
100   95050321455580800000000000003950000000003950002000000010410402110409107270661428570211978391010041   1030000900030000   541119001373190110000000979Ocean PZD City Care C- YANGONAUNG    MMR11002110409107270660211000000000000000   10300001F00104100000000000988000000000000     
100   62911028202212490000000000008900000000008900002000000010410402110433307277032184800211342031130041   1030000900030000   581219000715190110000000546Akkhaya Tea House(Dago YANGON        MMR11002110433307277030211000000000000000   10300001F00104100000000000908000000000000     
100   95030318100004530000000000045450000000045450002000000010410402110716407319902184800211711461340041   1030000900030000   599919001066190110000000251Pro (1) Global (MawlaM MONLAMYAING   MMR11002110716407319900211000000000000000   10300001F00104100000000002727000000000000     
100   62911028202595380000000000020750000000020750002000000010410402110802327332722184800211430321432041   1030000900030000   541119001263190110000000958City Mart PLST C 6     YANGONMYOTHIT MMR11002110802327332720211000000000000000   10300001F00104100000000001245000000000000     
100   95030313100050100000000000030000000000030000002000000010410402110321307259582184800211405510930041   1030000900030000   554119001101190110000000213New Day Energy SOK     YANGONOKKALAP MMR11002110321307259580211000000000000000   10300001F00104100000000000900000000000000     
100   95050324622440820000000000041000000000041000002000000010410402110921517354237894110211613511551041   1030000900030000   541119000162190110000000084Pro (1) Global (Pazund YANGONARTAUNG MMR11002110921517354230211000000000000000   10300001F00104100000000010250000000000000     
100   95050321455580800000000000002400000000002400002000000010410402110412287271434818640211019421028041   1030000900030000   541119001372190110000000978Ocean PZD Season C 2   YANGONAUNG    MMR11002110412287271430211000000000000000   10300001F00104100000000000600000000000000     
100   95050325784857510000000000004950000000004950002000000010410402110526577291356367760211140561157041   1030000900030000   541119001215190110000000950City Mart YK City Care YANGONAUNG    MMR11002110526577291350211000000000000000   10300001F00104100000000001238000000000000     
100   62443100364681690000000000300000000000300000002000000010410402110622195219426365430211000006628068   1030000200030000   333800010001203104000003327KBZPay                 Yangon        MMR11002110622195219420211000000000000000   10300001F05104100000000063000000000000000     
100   95050314979630620000000000001960000000001960002000000010410402111129055905177297100211000006631071   1020000200030000   333400010001204104000000281Myanmar Soft-Gate Tech Yangon        MMR11002111129055905170211000000000000000   10300001F05104100000000000412000000000000     
100   62911028202150190000000000024200000000024200002000000010410402110522487290152184800211068521148041   1030000900030000   591219000970190110000000777Shwe Ohh Pharmacy St ( YANGONAW      MMR11002110522487290150211000000000000000   10300001F00104100000000001452000000000000     
100   62443100364681690000000000300000000000300000002000000010410402110621335133067216350211000006628058   1030000200030000   333800010001203104000003327KBZPay                 Yangon        MMR11002110621335133060211000000000000000   10300001F05104100000000063000000000000000     
100   95050318694773110000000000002940000000002940002000000010410402111428545854059666020211000006632250   1020000200030000   333400010001204104000000281Myanmar Soft-Gate Tech Yangon        MMR11002111428545854050211000000000000000   10300001F05104100000000000617000000000000     
100   95050314287403810000000000002940000000002940002000000010410402110429075907970116480211000006626801   1020000200030000   333400010001204104000000281Myanmar Soft-Gate Tech Yangon        MMR11002110429075907970211000000000000000   10300001F05104100000000000617000000000000     
100   62443100379321630000000000025600000000025600002000000010410402110816397336891082510211676461439041   1030000900030000   581219000528190110000000376Shwepalin (Hantharwadd YANGONUT      MMR11002110816397336890211000000000000000   10300001F00104100000000010880000000000000     
100   95030333257899680000000000049500000000049500002000000010410402111053147381772184800211271231714041   1030000900030000   541119000881190110000000084Pro (1) Global (Pazund YANGONARTAUNG MMR11002111053147381770211000000000000000   10300001F00104100000000002970000000000000     
100   95050318710290270000000000008500000000008500002000000010410402111241210022649631360211000742759156   1030000200030000   541188001002000008000000008KBZ BANK               MARKETPLACE - MMR11002111241210022640211000000000000000   10300001 00104100000000002125000000000000     
100   62911028202472440000000000072592000000072592002000000010410402111400230154382184800211000742764260   1030000200030000   541188001003000008000000008KBZ BANK               MARKETPLACE - MMR11002111400230154380211000000000000000   10300001 00104100000000004356000000000000     
100   95050314703432410000000000001960000000001960002000000010410402110949041904895269950211000006630308   1020000200030000   333400010001204104000000281Myanmar Soft-Gate Tech Yangon        MMR11002110949041904890211000000000000000   10300001F05104100000000000412000000000000     
100   62443100330108240000000000002940000000002940002000000010410402110518304830856864530211000006627339   1020000200030000   333400010001204104000000281Myanmar Soft-Gate Tech Yangon        MMR11002110518304830850211000000000000000   10300001F05104100000000000617000000000000     
100   62911028202448030000000000023200000000023200002000000010410402111223570126452184800211000742757942   1030000200030000   541188001005000008000000008KBZ BANK               MARKETPLACE - MMR11002111223570126450211000000000000000   10300001 00104100000000001392000000000000     
100   95050319156011610000000000002940000000002940002000000010410402111319034903531148300211000006631778   1020000200030000   333400010001204104000000281Myanmar Soft-Gate Tech Yangon        MMR11002111319034903530211000000000000000   10300001F05104100000000000617000000000000     
100   62911028202417260000000000004400000000004400002000000010410402111017377370462184800211573471637041   1030000900030000   591219000601190110000000441Shwe Ohh Pharmacy St-3 YANGON        MMR11002111017377370460211000000000000000   10300001F00104100000000000264000000000000     
100   95030333257899680000000000663000000000663000002000000010410402111026497373352184800211750561649041   1030000900030000   541119000160190110000000084Pro (1) Global (Pazund YANGONARTAUNG MMR11002111026497373350211000000000000000   10300001F00104100000000039780000000000000     
100   62911028202466670000000000098200000000098200002000000010410402110343449608492184800211204210960849   1040001600030000   591220000276000000010000264Shwe Ohh Pharmacy (YGH Yangon        MMR11002110343449608490211000000000000000   10300001F00104100000000005892000000000000     
100   62911028202466670000000000117400000000117400002000000010410402110429099626592184800211204211962659   1040001600030000   591220000276000000010000264Shwe Ohh Pharmacy (YGH Yangon        MMR11002110429099626590211000000000000000   10300001F00104100000000007044000000000000     
100   62911028202441420000000000151400000000151400002000000010410402111206089890452184800211204219989045   1040001600030000   591220000294000000010000282Shwe Ohh Pharmacy (Kha Yangon        MMR11002111206089890450211000000000000000   10300001F00104100000000009084000000000000     
100   95050323133124350000000000005000000000005000002000000010410402111301443144244623460211000006631675   1030000300030000   333800010001206104000003566MPT Pay                Yangon        MMR11002111301443144240211000000000000000   10300001F05104100000000001050000000000000     
100   95050315250339200000000000000980000000000980002000000010410402110955232523163496710211000006630337   1020000200030000   333400010001204104000000281Myanmar Soft-Gate Tech Yangon        MMR11002110955232523160211000000000000000   10300001F05104100000000000206000000000000     
100   95050314570621780000000000001960000000001960002000000010410402110555242524874028800211000006627712   1020000200030000   333400010001204104000000281Myanmar Soft-Gate Tech Yangon        MMR11002110555242524870211000000000000000   10300001F05104100000000000412000000000000     
100   95030301100076300000000000013000000000013000002000000010410402110954432443392184800211000006630333   1030000200030000   333800010001203104000003327KBZPay                 Yangon        MMR11002110954432443390211000000000000000   10300001F05104100000000002730000000000000     
100   95030301100081740000000000014450000000014450002000000010410402100954110006382184800210204116000638   1030000500030000   503920036606000015039200366PRO-1 HOME CENTER      PTN           MMR11002100954110006380210000000000000000   10300001 00104100000000000867000000000000     
100   62911028202161240000000000020000000000020000002000000010410402110545289665962184800211204212966596   1040001600030000   598320000658000000010000527Shwe Taung Energy (YGN Yangon        MMR11002110545289665960211000000000000000   10300001F00104100000000000600000000000000     
100   62911028202161240000000000015000000000015000002000000010410402110546049666302184800211204212966630   1040001600030000   598320000658000000010000527Shwe Taung Energy (YGN Yangon        MMR11002110546049666300211000000000000000   10300001F00104100000000000450000000000000     
100   62911028202023630000000000039000000000039000002000000010410402101117100023892184800210204111002389   1030000600030000   554100001233315799420000687DENKO LASHIO           LASHIO        MMR11002101117100023890210000000000000000   10300001 00104100000000001170000000000000     
100   95050317085125750000000000020000000000020000002000000010410402111232330233631829070211000006631479   1030000200030000   333800010001203104000003327KBZPay                 Yangon        MMR11002111232330233630211000000000000000   10300001F05104100000000004200000000000000     
100   95050316769671810000000000001960000000001960002000000010410402110604293429063957490211000006627812   1020000200030000   333400010001204104000000281Myanmar Soft-Gate Tech Yangon        MMR11002110604293429060211000000000000000   10300001F05104100000000000412000000000000     
100   62911028202221220000000000010000000000010000002000000010410402092315470525112184800210204123052511   1030000600030000   554100002085315799420000471DENKO BAHAN            YANGON        MMR11002092315470525110210000000000000000   10300001 00104100000000000300000000000000     
100   62911028202232370000000000010000000000010000002000000010410402110920015001282184800211000006630081   1030000200030000   333800010001203104000003327KBZPay                 Yangon        MMR11002110920015001280211000000000000000   10300001F05104100000000002100000000000000     
100   95050321287849350000000000126600000000126600002000000010410402111017279797791337430211204217979779   1040001600030000   591220000288000000010000276Shwe Ohh Pharmacy (Nor Yangon        MMR11002111017279797790211000000000000000   10300001F00104100000000030384000000000000     
100   95050328074436620000000000040000000000040000002000000010410402101107190137742904710210204117013774   1030000500030000   598320001001000015172200010MAX ENERGY             PTN           MMR11002101107190137740210000000000000000   10300001 00104100000000004800000000000000     
100   62911028202655010000000000019800000000019800002000000010410402111019037370872184800211600491603041   1030000900030000   591219000690190110000000521Shwe Ohh Pharmacy ST-1 YANGONAUNG    MMR11002111019037370870211000000000000000   10300001F00104100000000001188000000000000     
100   62443100376865460000000000039741000000039741002000000010410402110908319758280194750211204216975828   1040001600030000   541120000555000000010000465Ocean Shwe Gone Daing  Yangon        MMR11002110908319758280211000000000000000   10300001F00104100000000009936000000000000     
100   62911028202004410000000000019900000000019900002000000010410402110739357326242184800211069091435041   1030000900030000   581219000427190110000000287Sushi Tei Myanmar (Dha YANGON        MMR11002110739357326240211000000000000000   10300001F00104100000000002030000000000000     
100   95050316067768680000000000002940000000002940002000000010410402111229335933296871620211000006631466   1020000200030000   333400010001204104000000281Myanmar Soft-Gate Tech Yangon        MMR11002111229335933290211000000000000000   10300001F05104100000000000617000000000000     
100   62911028202260160000000000042600000000042600002000000010410402110313029596562184800211204210959656   1040001600030000   591220000626000000010000497AAA Pharmacy           Ygn           MMR11002110313029596560211000000000000000   10300001F00104100000000002556000000000000     
100   95030301100103940000000000011700000000011700002000000010410402110830319740352184800211204215974035   1040001600030000   541120000557000000010000465Ocean Shwe Gone Daing  Yangon        MMR11002110830319740350211000000000000000   10300001F00104100000000000702000000000000     
100   62911028202133520000000000008200000000008200002000000010410402111150197398172184800211295201819041   1030000900030000   541119001076190110000000872Sein Gay Har Hledan    YANGONUT      MMR11002111150197398170211000000000000000   10300001F00104100000000000492000000000000     
100   95030333257899680000000001026850000001026850002000000010410402111042317378072184800211035121731041   1030000900030000   541119000160190110000000084Pro (1) Global (Pazund YANGONARTAUNG MMR11002111042317378070211000000000000000   10300001F00104100000000061611000000000000     
100   95050318057347910000000000000980000000000980002000000010410402111219434943368524110211000006631426   1020000200030000   333400010001204104000000281Myanmar Soft-Gate Tech Yangon        MMR11002111219434943360211000000000000000   10300001F05104100000000000206000000000000     
100   95050325388974590000000000005000000000005000002000000010410402111038480307729204880211774121710041   1030000500030000   555610110595104519000009166City Mart 47 Branch                  MMR11002111038480307720211000000000000000   10300001 00104100000000001250000000000000     
100   95050318951177660000000000043000000000043000002000000010410402110236130613089175270211000006625428   1030000200030000   333800010001203104000003327KBZPay                 Yangon        MMR11002110236130613080211000000000000000   10300001F05104100000000009030000000000000     
100   95050312781844250000000000010000000000010000002000000010410402111054382438856155200211000006630819   1030000200030000   333800010001203104000003327KBZPay                 Yangon        MMR11002111054382438850211000000000000000   10300001F05104100000000002100000000000000     
100   62443100374831340000000000186700000000186700002000000010410402111151470321783226270211713201859041   1030000300030000   55551012239610451900001872399 Export Fashion 9 Mi es            MMR11002111151470321780211000000000000000   10300001 00104100000000044808000000000000     
100   95050315564078030000000000200000000000200000002000000010410402110249511951699812340211000006625611   1030000200030000   333800010001203104000003327KBZPay                 Yangon        MMR11002110249511951690211000000000000000   10300001F05104100000000042000000000000000     
100   62443100330105920000000000024500000000024500002000000010410402110555232523601404600211000006627733   1020000200030000   333400010001204104000000281Myanmar Soft-Gate Tech Yangon        MMR11002110555232523600211000000000000000   10300001F05104100000000005145000000000000     
100   62911028202289130000000000039330000000039330002000000010410402110530190259312184800211121211247041   1030000300030000   444410118915104519000016097SP Bakery Yangon SR 1                MMR11002110530190259310211000000000000000   10300001 00104100000000004012000000000000     
100   62911028202110420000000000024100000000024100002000000010410402110638530267822184800211293121347041   1030000500030000   555610103464104519000003420City Mart Yankin Cente 3             MMR11002110638530267820211000000000000000   10300001 00104100000000001446000000000000     
100   95050325388974590000000000032050000000032050002000000010410402111026000305123821080211434591604041   1030000500030000   555610110595104519000009166City Mart 47 Branch                  MMR11002111026000305120211000000000000000   10300001 00104100000000008013000000000000     
100   62443100314002660000000000049750000000049750002000000010410402110441380248284988830211696121147041   1030000300030000   555510118813104519000016014MGOU Ocean Center                    MMR11002110441380248280211000000000000000   10300001 00104100000000011940000000000000     
100   95050310322713510000000000030240000000030240002000000010410402111236060606773481560211000006631506   1030000900030000   333800010001202104000003301uab bank               Yangon        MMR11002111236060606770211000000000000000   10300001F05104100000000006350000000000000     
100   95030301100359870000000000063000000000063000002000000010410402110357392739292184800211000006626381   1030000200030000   333800010001203104000003327KBZPay                 Yangon        MMR11002110357392739290211000000000000000   10300001F05104100000000013230000000000000     
100   62911028202114550000000000200000000000200000002000000010410402110755522552272184800211000006629221   1030000200030000   333800010001203104000003327KBZPay                 Yangon        MMR11002110755522552270211000000000000000   10300001F05104100000000042000000000000000     
100   95050315396509660000000000007000000000007000002000000010410402111056192619541112650211000006630836   1030000200030000   333800010001203104000003327KBZPay                 Yangon        MMR11002111056192619540211000000000000000   10300001F05104100000000001470000000000000     
100   95050312023656110000000000300000000000300000002000000010410402110609313931310056860211000006627891   1030000200030000   333800010001203104000003327KBZPay                 Yangon        MMR11002110609313931310211000000000000000   10300001F05104100000000063000000000000000     
100   95050326393773020000000000004900000000004900002000000010410402110610544054957007150211000006627919   1020000200030000   333400010001204104000000281Myanmar Soft-Gate Tech Yangon        MMR11002110610544054950211000000000000000   10300001F05104100000000001029000000000000     
100   95050318048516790000000000003000000000003000002000000010410402110319544954416978930211000006625993   1030000200030000   3334000100012031040000040102C2P (Myanmar) Co. Ltd Yangon        MMR11002110319544954410211000000000000000   10300001F05104100000000000630000000000000     
100   95030339867270590000000000055581000000055581002000000010410402111154280322112184800211752231827041   1030000500030000   555610118967104519000016137City Mart South Okkala WZYD BR       MMR11002111154280322110211000000000000000   10300001 00104100000000003335000000000000     
100   95050317465574180000000000010000000000010000002000000010410402111435180518524467060211000006632306   1030000200030000   333800010001203104000003327KBZPay                 Yangon        MMR11002111435180518520211000000000000000   10300001F05104100000000002100000000000000     
100   95050325455962190000000000100000000000100000002000000010410402110251452145113358780211000006625630   1030000200030000   333800010001203104000003327KBZPay                 Yangon        MMR11002110251452145110211000000000000000   10300001F05104100000000021000000000000000     
100   95050316769671810000000000000980000000000980002000000010410402110606283628314382950211000006627865   1020000200030000   333400010001204104000000281Myanmar Soft-Gate Tech Yangon        MMR11002110606283628310211000000000000000   10300001F05104100000000000206000000000000     
100   95050314567080940000000000000980000000000980002000000010410402111414074407498098630211000006632162   1020000200030000   333400010001204104000000281Myanmar Soft-Gate Tech Yangon        MMR11002111414074407490211000000000000000   10300001F05104100000000000206000000000000     
100   95050323233042810000000000000980000000000980002000000010410402111414484448059751110211000006632156   1020000200030000   333400010001204104000000281Myanmar Soft-Gate Tech Yangon        MMR11002111414484448050211000000000000000   10300001F05104100000000000206000000000000     
100   95030301100341540000000000020000000000020000002000000010410402110416564656592184800211000006626666   1030000200030000   333800010001203104000003327KBZPay                 Yangon        MMR11002110416564656590211000000000000000   10300001F05104100000000004200000000000000     
100   95030301100120440000000000028500000000028500002000000010410402111031450305482184800211494011704041   1030000500030000   555610110599104519000009166City Mart 47 Branch                  MMR11002111031450305480211000000000000000   10300001 00104100000000001710000000000000     
100   62911028202077190000000000001960000000001960002000000010410402110541211121302184800211000006627617   1020000200030000   333400010001204104000000281Myanmar Soft-Gate Tech Yangon        MMR11002110541211121300211000000000000000   10300001F05104100000000000412000000000000     
100   95050316321163940000000000000980000000000980002000000010410402111555532553837772030211000006632705   1020000200030000   333400010001204104000000281Myanmar Soft-Gate Tech Yangon        MMR11002111555532553830211000000000000000   10300001F05104100000000000206000000000000     
100   95050310477479240000000000001960000000001960002000000010410402110357362736573218560211000006626436   1020000200030000   333400010001204104000000281Myanmar Soft-Gate Tech Yangon        MMR11002110357362736570211000000000000000   10300001F05104100000000000412000000000000     
100   62911028202261230000000000097950000000097950002000000010410402111025590304772184800211386571618041   1030000300030000   555610103748104519000003624G and G Convenience St re 165        MMR11002111025590304770211000000000000000   10300001 00104100000000005877000000000000     
100   95050315053846650000000000025000000000025000002000000010410402110537560756418709080211000006627581   1030000200030000   333800010001203104000003327KBZPay                 Yangon        MMR11002110537560756410211000000000000000   10300001F05104100000000005250000000000000     
100   95050314064416890000000000001960000000001960002000000010410402110937400740755341220211000006630228   1020000200030000   333400010001204104000000281Myanmar Soft-Gate Tech Yangon        MMR11002110937400740750211000000000000000   10300001F05104100000000000412000000000000     
100   95050310652791070000000000020000000000020000002000000010410402111142131213410006400211000006631159   1030000200030000   333800010001203104000003327KBZPay                 Yangon        MMR11002111142131213410211000000000000000   10300001F05104100000000004200000000000000     
100   62911028202057620000000000031000000000031000002000000010410402110559482948992184800211000006627769   1030000200030000   333800010001203104000003327KBZPay                 Yangon        MMR11002110559482948990211000000000000000   10300001F05104100000000006510000000000000     
100   95050310427855490000000000001960000000001960002000000010410402110105283528190732250211000006624851   1020000200030000   333400010001204104000000281Myanmar Soft-Gate Tech Yangon        MMR11002110105283528190211000000000000000   10300001F05104100000000000412000000000000     
100   62443100300743690000000000002050000000002050002000000010410402101225270025104131710210000329900813   1030000300030000   541100000444000000000000319CB BANK                ONESTOP KITCH MMR11002101225270025100210000000000000000   10300001F00104100000000000513000000000000     
100   62443101003317490000000000099000000000099000002000000010410402100611330036240082740210204112003624   1030000500030000   598320001404000015172200014MAX ENERGY             PTN           MMR11002100611330036240210000000000000000   10300001 00104100000000011880000000000000     
100   95050329720609600000000000280035000000280035002000000010410402100823510006612685070210204114000661   1030000500030000   421420098901022504214200989DHL (LANMADAW)         PTN           MMR11002100823510006610210000000000000000   10300001 00104100000000067208000000000000     
100   62911028202287720000000000005600000000005600002000000010410402100415230005502184800210204110000550   1030000500030000   591220011001014405912200110SHWE OHH PHARMACY      PTN           MMR11002100415230005500210000000000000000   10300001 00104100000000000336000000000000     
100   62911028202472440000000000043540000000043540002000000010410402100533410026352184800210204112002635   1030000500030000   806220046404006308062200464ASIA ROYAL HOSPITAL    PTN           MMR11002100533410026350210000000000000000   10300001 00104100000000002612000000000000     
100   95030301100129110000000000038000000000038000002000000010410402101044410032192184800210204117003219   1030000500030000   598320001403000015172200014MAX ENERGY             PTN           MMR11002101044410032190210000000000000000   10300001 00104100000000001140000000000000     
100   95050315955808830000000000024000000000024000002000000010410402100041570105135718600210204107010513   1030000500030000   598320001101000015172200011MAX ENERGY             PTN           MMR11002100041570105130210000000000000000   10300001 00104100000000002880000000000000     
100   95030399304534290000000000103150000000103150002000000010410402100320300009312184800210204109000931   1030000500030000   569120051501000015691200515AMERICAN BRANDED COLLE PTN           MMR11002100320300009310210000000000000000   10300001 00104100000000006189000000000000     
100   62443101003317490000000000040000000000040000002000000010410402100732420099631968650210204114009963   1030000500030000   598320001401000015172200014MAX ENERGY             PTN           MMR11002100732420099630210000000000000000   10300001 00104100000000004800000000000000     
100   62911028202143500000000000042458000000042458002000000010410402092349320003572184800210204106000357   1030000500030000   598320002104000015172200021MAX ENERGY             PTN           MMR11002092349320003570210000000000000000   10300001 00104100000000001274000000000000     
100   95050313240335680000000000001900000000001900002000000010410402101038230002314387000210204117000231   1030000500030000   531120155710000045311201557GAMONE PWINT           PTN           MMR11002101038230002310210000000000000000   10300001 00104100000000000456000000000000     
100   62911028202446700000000000020000000000020000002000000010410402100117290035722184800210204107003572   1030000500030000   598320001404000015172200014MAX ENERGY             PTN           MMR11002100117290035720210000000000000000   10300001 00104100000000000600000000000000     
100   95030308100042590000000000009900000000009900002000000010410402100833000001802184800210204115000180   1030000500030000   531120155807000045311201558GAMONE PWINT           PTN           MMR11002100833000001800210000000000000000   10300001 00104100000000000594000000000000     
100   62911028202472440000000000070000000000070000002000000010410402100524570038242184800210204105003824   1030000600030000   806200002188315799420001535ASIA ROYAL HOSPITAL    YANGON        MMR11002100524570038240210000000000000000   10300001 00104100000000004200000000000000     
100   95030346645639490000000000057281000000057281002000000010410402101016270002292184800210204116000229   1030000500030000   531120155710000045311201557GAMONE PWINT           PTN           MMR11002101016270002290210000000000000000   10300001 00104100000000003437000000000000     
100   95030346645639490000000000007200000000007200002000000010410402101021590001562184800210204116000156   1030000500030000   531120155712000045311201557GAMONE PWINT           PTN           MMR11002101021590001560210000000000000000   10300001 00104100000000000432000000000000     
100   95030399304534290000000000011300000000011300002000000010410402100257580003822184800210204109000382   1030000500030000   591220042601014405912200426SHWE OHH PHARMACY      PTN           MMR11002100257580003820210000000000000000   10300001 00104100000000000678000000000000     
100   95050329252108030000000000025000000000025000002000000010410402101329480079694211100210204119007969   1030000500030000   598320041902000055983200419MAX ENERGY             PTN           MMR11002101329480079690210000000000000000   10300001 00104100000000003000000000000000     
