100   62911028202198700000000000015000000000015000002000000010410402221040090067462184800222205310006746   1030000600030000   554100002323315799420000474DENKO N.DAGON - 1      YANGON        MMR11002221040090067460222000000000000000   10300001 00104100000000000450000000000000     
100   62911028202248050000000000030000000000030000002000000010410402220725230233332184800222205307023333   1030000600030000   554100001155315799420000607DENKO NPT 1            NAYPYITAW.    MMR11002220725230233330222000000000000000   10300001 00104100000000000900000000000000     
100   95050315955808830000000000017400000000017400002000000010410402230937080002775845240223000331956962   1030000300030000   591200000188000000000000093CB BANK                MEDICARE STOR MMR11002230937080002770223000000000000000   10300001F00104100000000004176000000000000     
100   62911028202524260000000000027300000000027300002000000010410402231126370003112184800223205417000311   1030000500030000   591220010901014405912200109SHWE OHH PHARMACY      PTN           MMR11002231126370003110223000000000000000   10300001 00104100000000001638000000000000     
100   62911028202328650000000000001200000000001200002000000010410402230825280001542184800223205408000154   1030000600030000   5499000022303157994200015671 STOP S M BOGYOKE RD  YANGON        MMR11002230825280001540223000000000000000   10300001 00104100000000000122000000000000     
100   95030304100101100000000000033300000000033300002000000010410402230947310003522184800223205416000352   1030000500030000   591220011801014405912200118SHWE OHH PHARMACY      PTN           MMR11002230947310003520223000000000000000   10300001 00104100000000001998000000000000     
100   62911028202400660000000000250300000000250300002000000010410402230708170002112184800223205407000211   1030000600030000   597700000665315799420000248SHISEIDO JC            YANGON        MMR11002230708170002110223000000000000000   10300001 00104100000000015018000000000000     
100   95050313113158460000000000000980000000000980002000000010410402241054512451594516990224000006702976   1020000200030000   333400010001204104000000281Myanmar Soft-Gate Tech Yangon        MMR11002241054512451590224000000000000000   10300001F05104100000000000206000000000000     
100   95050316997303010000000000001960000000001960002000000010410402240811494149189334180224000006701822   1020000200030000   333400010001204104000000281Myanmar Soft-Gate Tech Yangon        MMR11002240811494149180224000000000000000   10300001F05104100000000000412000000000000     
100   95030301100120850000000000010000000000010000002000000010410402240251182118272184800224000006699378   1030000200030000   333800010001203104000003327KBZPay                 Yangon        MMR11002240251182118270224000000000000000   10300001F05104100000000002100000000000000     
100   95050315259054570000000000000980000000000980002000000010410402241108353835039644630224000006703050   1020000200030000   333400010001204104000000281Myanmar Soft-Gate Tech Yangon        MMR11002241108353835030224000000000000000   10300001F05104100000000000206000000000000     
100   95050310332595380000000000002940000000002940002000000010410402240925205520618873050224000006702353   1020000200030000   333400010001204104000000281Myanmar Soft-Gate Tech Yangon        MMR11002240925205520610224000000000000000   10300001F05104100000000000617000000000000     
100   62443100318296470000000000170000000000170000002000000010410402240939417630372348210224205516763037   1040001600030000   598320000658000000010000527Shwe Taung Energy (YGN Yangon        MMR11002240939417630370224000000000000000   10300001F00104100000000020400000000000000     
100   62443100306028540000000000005816000000005816002000000010410402241045551841997141190224861171745054   1030000500030000   555610112235104519000010487Ocean Super Center St  ohn           MMR11002241045551841990224000000000000000   10300001 00104100000000001454000000000000     
100   95050314567080940000000000000980000000000980002000000010410402240354582458238249800224000006699932   1020000200030000   333400010001204104000000281Myanmar Soft-Gate Tech Yangon        MMR11002240354582458230224000000000000000   10300001F05104100000000000206000000000000     
100   62911028202668140000000000093700000000093700002000000010410402230955150005542184800223205416000554   1030000500030000   541120129720000045411201297MAKRO MYANMAR          PTN           MMR11002230955150005540223000000000000000   10300001 00104100000000005622000000000000     
100   62911028202170490000000000029000000000029000002000000010410402230328280045752184800223205409004575   1030000500030000   598320001403000015172200014MAX ENERGY             PTN           MMR11002230328280045750223000000000000000   10300001 00104100000000000870000000000000     
100   95050312867570630000000000002400000000002400002000000010410402231000110016576440910223000331959800   1030000300030000   591200000169000000000000084CB BANK                MEDICARE STOR MMR11002231000110016570223000000000000000   10300001F00104100000000000576000000000000     
100   95050321232876860000000000078000000000078000002000000010410402230328080054248321110223205403005424   1030000600030000   554100002328315799420001235DENKO NAY PYI TAW 2    NAYPYITAW     MMR11002230328080054240223000000000000000   10300001 00104100000000009360000000000000     
100   62911028202289130000000000036382000000036382002000000010410402230353330074452184800223205403007445   1030000600030000   581200000526315799420000143SIGNATURE FINEDINING 1 YANGON        MMR11002230353330074450223000000000000000   10300001 00104100000000003711000000000000     
100   95030305700676370000000000060000000000060000002000000010410402230240400035682184800223205409003568   1030000500030000   598320115101005405983201151PT POWER (HLEGU)       PTN           MMR11002230240400035680223000000000000000   10300001 00104100000000001800000000000000     
100   95050323083208720000000000045000000000045000002000000010410402230546500053539413570223205412005353   1030000500030000   598320001404000015172200014MAX ENERGY             PTN           MMR11002230546500053530223000000000000000   10300001 00104100000000005400000000000000     
100   95030328100017490000000000050000000000050000002000000010410402230338300006922184800223205410000692   1030000500030000   598320101301005405983201013PT POWER (NPT)         PTN           MMR11002230338300006920223000000000000000   10300001 00104100000000001500000000000000     
100   95050314296769560000000000000980000000000980002000000010410402241059392939926169470224000006703010   1020000200030000   333400010001204104000000281Myanmar Soft-Gate Tech Yangon        MMR11002241059392939920224000000000000000   10300001F05104100000000000206000000000000     
100   62443100361813580000000000084500000000084500002000000010410402240109243924639441150224000006698988   1030000200030000   333800010001203104000003327KBZPay                 Yangon        MMR11002240109243924630224000000000000000   10300001F05104100000000017745000000000000     
100   95050315564078030000000000020000000000020000002000000010410402241320235023531708810224000006703632   1030000200030000   3338000100012031040000040022C2P (Myanmar) Co. Ltd Yangon        MMR11002241320235023530224000000000000000   10300001F05104100000000004200000000000000     
100   62911028202169750000000000188900000000188900002000000010410402240530577509272184800224205512750927   1040001600030000   591220000267000000010000255Shwe Ohh Pharmacy (Bah Yangon        MMR11002240530577509270224000000000000000   10300001F00104100000000011334000000000000     
100   95050317100052460000000000002940000000002940002000000010410402241329195919501879000224000006703673   1020000200030000   333400010001204104000000281Myanmar Soft-Gate Tech Yangon        MMR11002241329195919500224000000000000000   10300001F05104100000000000617000000000000     
100   95050317465574180000000000005000000000005000002000000010410402241414104410918148550224000006703874   1030000200030000   333800010001203104000003327KBZPay                 Yangon        MMR11002241414104410910224000000000000000   10300001F05104100000000001050000000000000     
100   95050314703432410000000000001000000000001000002000000010410402241019474947420020670224000006702745   1030000200030000   3338000100012031040000040022C2P (Myanmar) Co. Ltd Yangon        MMR11002241019474947420224000000000000000   10300001F05104100000000000210000000000000     
100   95050310427855490000000000001960000000001960002000000010410402240306093609952526480224000006699496   1020000200030000   333400010001204104000000281Myanmar Soft-Gate Tech Yangon        MMR11002240306093609950224000000000000000   10300001F05104100000000000412000000000000     
100   62911028202777610000000000054000000000054000002000000010410402230126100056022184800223205401005602   1030000600030000   554100002324315799420000481DENKO NORTH OKKALAPA   YANGON        MMR11002230126100056020223000000000000000   10300001 00104100000000001620000000000000     
100   95050329252108030000000000016500000000016500002000000010410402231322070085736306370223205419008573   1030000500030000   598320041902000055983200419MAX ENERGY             PTN           MMR11002231322070085730223000000000000000   10300001 00104100000000001980000000000000     
100   62911028202031710000000000015000000000015000002000000010410402230437140117462184800223205411011746   1030000500030000   598320001402000015172200014MAX ENERGY             PTN           MMR11002230437140117460223000000000000000   10300001 00104100000000000450000000000000     
100   62911028202328650000000000008300000000008300002000000010410402230832020027612184800223205408002761   1030000600030000   5499000022273157994200015671 STOP S M BOGYOKE RD  YANGON        MMR11002230832020027610223000000000000000   10300001 00104100000000000847000000000000     
100   95050314791376690000000000014500000000014500002000000010410402231141080017696937700223205418001769   1030000500030000   541120025401022205411200254ORANGE 2(MDY)          PTN           MMR11002231141080017690223000000000000000   10300001 00104100000000003625000000000000     
100   62443100369813440000000000020000000000020000002000000010410402230840150202015178260223205415020201   1030000500030000   598320001302000015172200013MAX ENERGY             PTN           MMR11002230840150202010223000000000000000   10300001 00104100000000002400000000000000     
100   62911028202143500000000000034500000000034500002000000010410402231029210149852184800223205416014985   1030000500030000   598320002102000015172200021MAX ENERGY             PTN           MMR11002231029210149850223000000000000000   10300001 00104100000000001035000000000000     
100   62911028202448030000000000025000000000025000002000000010410402230651070152352184800223205413015235   1030000500030000   598320001901000015172200019MAX ENERGY             PTN           MMR11002230651070152350223000000000000000   10300001 00104100000000000750000000000000     
100   95050323722449090000000000004900000000004900002000000010410402240517494749740929150224000006700603   1020000200030000   333400010001204104000000281Myanmar Soft-Gate Tech Yangon        MMR11002240517494749740224000000000000000   10300001F05104100000000001029000000000000     
100   95030301100117720000000000053100000000053100002000000010410402241144541852792184800224385141818054   1030000500030000   555610103479104519000003432City Mart Junction Zaw na 6          MMR11002241144541852790224000000000000000   10300001 00104100000000003186000000000000     
100   95050314296769560000000000000980000000000980002000000010410402241421105110296496070224000006703896   1020000200030000   333400010001204104000000281Myanmar Soft-Gate Tech Yangon        MMR11002241421105110290224000000000000000   10300001F05104100000000000206000000000000     
100   62911028202537390000000000005400000000005400002000000010410402241336351863732184800224836092051054   1030000500030000   555610119282104519000016350City Express MCS 89                  MMR11002241336351863730224000000000000000   10300001 00104100000000000324000000000000     
100   95050318601641810000000000002750000000002750002000000010410402241247291860614772280224486211913054   1030000500030000   555610112657104519000010852City Express MCS 58                  MMR11002241247291860610224000000000000000   10300001 00104100000000000688000000000000     
100   95050313843656520000000000000980000000000980002000000010410402240615484548068461360224000006701044   1020000200030000   333400010001204104000000281Myanmar Soft-Gate Tech Yangon        MMR11002240615484548060224000000000000000   10300001F05104100000000000206000000000000     
100   95050311184380560000000000000980000000000980002000000010410402240511094109356056800224000006700546   1020000200030000   333400010001204104000000281Myanmar Soft-Gate Tech Yangon        MMR11002240511094109350224000000000000000   10300001F05104100000000000206000000000000     
100   62443100306028540000000000005800000000005800002000000010410402241058451844067907050224152281743054   1030000300030000   444410120049104519000017043YKKO St John                         MMR11002241058451844060224000000000000000   10300001 00104100000000002465000000000000     
100   62911028202173870000000000040000000000040000002000000010410402230349480171012184800223205410017101   1030000500030000   598320001601000015172200016MAX ENERGY             PTN           MMR11002230349480171010223000000000000000   10300001 00104100000000001200000000000000     
100   62911028202104650000000000088000000000088000002000000010410402230106390154162184800223205407015416   1030000500030000   598320001001000015172200010MAX ENERGY             PTN           MMR11002230106390154160223000000000000000   10300001 00104100000000002640000000000000     
100   95050322921717110000000000020000000000020000002000000010410402230128040170804076370223205407017080   1030000500030000   598320001601000015172200016MAX ENERGY             PTN           MMR11002230128040170800223000000000000000   10300001 00104100000000002400000000000000     
100   95030301100344690000000000010000000000010000002000000010410402231051360551042184800223205410055104   1030000600030000   554100002085315799420000471DENKO BAHAN            YANGON        MMR11002231051360551040223000000000000000   10300001 00104100000000000300000000000000     
100   95050324154190880000000000033000000000033000002000000010410402230309040201160003540223205409020116   1030000500030000   598320001302000015172200013MAX ENERGY             PTN           MMR11002230309040201160223000000000000000   10300001 00104100000000003960000000000000     
100   95030320529939180000000000080000000000080000002000000010410402230600350149302184800223205412014930   1030000500030000   598320002102000015172200021MAX ENERGY             PTN           MMR11002230600350149300223000000000000000   10300001 00104100000000002400000000000000     
100   62911028202143500000000000009406000000009406002000000010410402231320360150192184800223205419015019   1030000500030000   598320002102000015172200021MAX ENERGY             PTN           MMR11002231320360150190223000000000000000   10300001 00104100000000000282000000000000     
100   95050325925517520000000000022000000000022000002000000010410402230850050171683610870223205415017168   1030000500030000   598320001602000015172200016MAX ENERGY             PTN           MMR11002230850050171680223000000000000000   10300001 00104100000000002640000000000000     
100   95050312498129060000000000000980000000000980002000000010410402241301543154706509860224000006703558   1020000200030000   333400010001204104000000281Myanmar Soft-Gate Tech Yangon        MMR11002241301543154700224000000000000000   10300001F05104100000000000206000000000000     
100   95050315150726490000000000000980000000000980002000000010410402240318514851683838580224000006699624   1020000200030000   333400010001204104000000281Myanmar Soft-Gate Tech Yangon        MMR11002240318514851680224000000000000000   10300001F05104100000000000206000000000000     
100   95050316997303010000000000000980000000000980002000000010410402241325065506166836460224000006703650   1020000200030000   333400010001204104000000281Myanmar Soft-Gate Tech Yangon        MMR11002241325065506160224000000000000000   10300001F05104100000000000206000000000000     
100   62911028202533900000000000057600000000057600002000000010410402230501476876852184800223205412687685   1040001600030000   591220000275000000010000263Shwe Ohh Pharmacy (Hla Yangon        MMR11002230501476876850223000000000000000   10300001F00104100000000003456000000000000     
100   62911028202163630000000000074000000000074000002000000010410402230824320041022184800223205414004102   1030000500030000   598320001004000015172200010MAX ENERGY             PTN           MMR11002230824320041020223000000000000000   10300001 00104100000000002220000000000000     
100   95050310121313850000000000403200000000403200002000000010410402240653092309924511270224000006701321   1030000900030000   333800010001202104000003301uab bank               Yangon        MMR11002240653092309920224000000000000000   10300001F05104100000000084672000000000000     
100   62911028202752520000000000065000000000065000002000000010410402220145250324232184800222205301032423   1030000600030000   554100001106315799420000564DENKO PHYUU            PHYUU         MMR11002220145250324230222000000000000000   10300001 00104100000000001950000000000000     
100   95030337113021520000000000019487000000019487002000000010410402241000060245972184800224074301606054   1030000900030000   541119001242190110000000955City Mart JS C 1       YANGONUT      MMR11002241000060245970224000000000000000   10300001F00104100000000001169000000000000     
100   95050318141561190000000000001960000000001960002000000010410402240304373437770788900224000006699492   1020000200030000   333400010001204104000000281Myanmar Soft-Gate Tech Yangon        MMR11002240304373437770224000000000000000   10300001F05104100000000000412000000000000     
100   62911028202088990000000000006500000000006500002000000010410402240557561796162184800224774261236054   1030000300030000   444410116809104519000014355BreadTalk CrystalTower               MMR11002240557561796160224000000000000000   10300001 00104100000000000663000000000000     
100   95050319709462380000000000000980000000000980002000000010410402240543491349953333720224000006700822   1020000200030000   333400010001204104000000281Myanmar Soft-Gate Tech Yangon        MMR11002240543491349950224000000000000000   10300001F05104100000000000206000000000000     
100   62911028202418410000000000023300000000023300002000000010410402240928217624482184800224205516762448   1040001600030000   591220000258000000010000246Shwe Ohh Pharmacy (Sin Yangon        MMR11002240928217624480224000000000000000   10300001F00104100000000001398000000000000     
100   62443100350052510000000000062800000000062800002000000010410402241521060152859589480224000743312006   1030000200030000   541188001080000008000000294KBZ BANK               CITY MART - J MMR11002241521060152850224000000000000000   10300001 00104100000000015700000000000000     
100   95050316067768680000000000001960000000001960002000000010410402241325205520308574040224000006703654   1020000200030000   333400010001204104000000281Myanmar Soft-Gate Tech Yangon        MMR11002241325205520300224000000000000000   10300001F05104100000000000412000000000000     
100   95030301100124400000000000021881000000021881002000000010410402241100430263712184800224235301743054   1030000900030000   541119001261190110000000958City Mart PLST C 4     YANGONMYOTHIT MMR11002241100430263710224000000000000000   10300001F00104100000000001313000000000000     
100   95050323133124350000000000000979000000000979002000000010410402240202423242635164470224000006699164   1020000200030000   333400010001204104000000281Myanmar Soft-Gate Tech Yangon        MMR11002240202423242630224000000000000000   10300001F05104100000000000205000000000000     
100   95050321690472590000000000083500000000083500002000000010410402240934291828094000700224008031612054   1030000300030000   555510124362104519000020166Makro Myanmar                        MMR11002240934291828090224000000000000000   10300001 00104100000000020040000000000000     
100   62911028202143500000000000032871000000032871002000000010410402231056500021462184800223205417002146   1030000500030000   598320002104000015172200021MAX ENERGY             PTN           MMR11002231056500021460223000000000000000   10300001 00104100000000000986000000000000     
100   62911028202313470000000000040000000000040000002000000010410402241038111840182184800224613081725054   1030000500030000   888810111244104519000009671Max Energy CoLtd 10                  MMR11002241038111840180224000000000000000   10300001 00104100000000001200000000000000     
100   95050312926040930000000000000980000000000980002000000010410402241212174217137992150224000006703334   1020000200030000   333400010001204104000000281Myanmar Soft-Gate Tech Yangon        MMR11002241212174217130224000000000000000   10300001F05104100000000000206000000000000     
100   62911028202100930000000000058000000000058000002000000010410402241342020022602184800224000743306275   1030000200030000   541188001430000008000000401KBZ BANK               OCEAN SUPERCE MMR11002241342020022600224000000000000000   10300001 00104100000000003480000000000000     
100   62911028202245730000000000040300000000040300002000000010410402240416520020852184800224205510002085   1020000200030000   541100015007300235411000001MWD BANK               YGN           MMR11002240416520020850224000000000000000   10300001 00104100000000002418000000000000     
100   62911028202417260000000000033324000000033324002000000010410402241521280041552184800224000743312026   1030000200030000   541188001023000008000000298KBZ BANK               CITY MART - M MMR11002241521280041550224000000000000000   10300001 00104100000000001999000000000000     
100   62911028202678870000000000007850000000007850002000000010410402240233090145652184800224486030909054   1030000900030000   541119000120190110000000080Sein Gay Har BAK       YANGONADA     MMR11002240233090145650224000000000000000   10300001F00104100000000000471000000000000     
100   95050319067144780000000000016476000000016476002000000010410402241658440043150701440224000743316847   1030000200030000   541188001432000008000000401KBZ BANK               OCEAN SUPERCE MMR11002241658440043150224000000000000000   10300001 00104100000000004119000000000000     
100   62911028202537390000000000018500000000018500002000000010410402241355560014202184800224000743323667   1030000200030000   591288001741000008000004646KBZ BANK               PINLON PHARMA MMR11002241355560014200224000000000000000   10300001 00104100000000001110000000000000     
100   95050317903887690000000000001960000000001960002000000010410402240930310031302178020224000006702379   1020000200030000   333400010001204104000000281Myanmar Soft-Gate Tech Yangon        MMR11002240930310031300224000000000000000   10300001F05104100000000000412000000000000     
100   62911028202100930000000000004500000000004500002000000010410402241351110028042184800224000743306783   1030000200030000   541188001444000008000000401KBZ BANK               OCEAN SUPERCE MMR11002241351110028040224000000000000000   10300001 00104100000000000270000000000000     
100   62911028202313470000000000009900000000009900002000000010410402241636140089592184800224000743315702   1030000200030000   541188001056000008000000314KBZ BANK               MARKETPLACE - MMR11002241636140089590224000000000000000   10300001 00104100000000000594000000000000     
100   95030332666916030000000000101300000000101300002000000010410402240800230008882184800224000743309128   1030000200030000   599988000602000008000003445KBZ BANK               SWEETY HOME ( MMR11002240800230008880224000000000000000   10300001 00104100000000006078000000000000     
100   62911028202115700000000000055400000000055400002000000010410402241602340033362184800224000743314019   1030000200030000   541188001002000008000000008KBZ BANK               MARKETPLACE - MMR11002241602340033360224000000000000000   10300001 00104100000000003324000000000000     
100   62911028202708160000000000062750000000062750002000000010410402240730120209962184800224020001412054   1030000900030000   541119001471190110000001069K Mart Super Market-1  MONLAMYAING   MMR11002240730120209960224000000000000000   10300001F00104100000000003765000000000000     
100   95050312937155340000000000007900000000007900002000000010410402241151550277065027560224108211855054   1030000900030000   541119001266190110000000958City Mart PLST C9      YANGONMYOTHIT MMR11002241151550277060224000000000000000   10300001F00104100000000001975000000000000     
100   62911028202234680000000000012200000000012200002000000010410402241051070279642184800224000743294979   1030000200030000   541188001024000008000000298KBZ BANK               CITY MART - M MMR11002241051070279640224000000000000000   10300001 00104100000000000732000000000000     
100   95030301100121270000000000073100000000073100002000000010410402240756300216122184800224369261430054   1030000900030000   541119001259190110000000958City Mart PLST C 2     YANGONMYOTHIT MMR11002240756300216120224000000000000000   10300001F00104100000000004386000000000000     
100   95030301100346910000000000011807000000011807002000000010410402240922290236412184800224497521529054   1030000900030000   581219000994190110000000801Jo Jo Hot Pot Thanlyin YANGONIN      MMR11002240922290236410224000000000000000   10300001F00104100000000001204000000000000     
100   62911028202788270000000000022000000000022000002000000010410402241006380248012184800224208361638054   1030000900030000   554119001103190110000000215New Day Energy MYG     YANGONONE     MMR11002241006380248010224000000000000000   10300001F00104100000000000660000000000000     
100   95050327409540490000000000016900000000016900002000000010410402240743300213037099820224191131430054   1030000900030000   541119000121190110000000080Sein Gay Har BAK       YANGONADA     MMR11002240743300213030224000000000000000   10300001F00104100000000004225000000000000     
100   62911028202677390000000000020000000000020000002000000010410402240254240148992184800224619240924054   1030000900030000   554119001102190110000000214New Day Energy MTN     YANGON        MMR11002240254240148990224000000000000000   10300001F00104100000000000600000000000000     
100   95050312020729360000000000017650000000017650002000000010410402240710480205293284270224745401348054   1030000900030000   541119001264190110000000958City Mart PLST C 7     YANGONMYOTHIT MMR11002240710480205290224000000000000000   10300001F00104100000000004413000000000000     
100   62911028202890970000000000034550000000034550002000000010410402240843090227022184800224963131509054   1030000900030000   541119001320190110000000969OceanMingalarMDYCity C MANDALAYHARSI MMR11002240843090227020224000000000000000   10300001F00104100000000002073000000000000     
100   95050328246950960000000000125200000000125200002000000010410402240550180186886383400224702201218054   1030000900030000   573219001180190110000000936UNIQUE UChit Maung     YANGON        MMR11002240550180186880224000000000000000   10300001F00104100000000030048000000000000     
100   95030301100121270000000000009300000000009300002000000010410402240731350210262184800224041011435054   1030000900030000   541119001272190110000000960City Mart PLST Season  YANGONMYOTHIT MMR11002240731350210260224000000000000000   10300001F00104100000000000558000000000000     
100   62911028202115700000000000021400000000021400002000000010410402240840070226372184800224925101507054   1030000900030000   581419001388190110000000993Yuki Mugi Phone Sein   YANGON        MMR11002240840070226370224000000000000000   10300001F00104100000000000642000000000000     
100   95030301100121270000000000034750000000034750002000000010410402240801100217292184800224438311410054   1030000900030000   541119001274190110000000961City Mart PLST City Ca YANGONMYOTHIT MMR11002240801100217290224000000000000000   10300001F00104100000000002085000000000000     
100   62911028202158290000000000015400000000015400002000000010410402240336290156892184800224992061029054   1030000900030000   591219000694190110000000525Shwe Ohh Pharmacy ST-2 YANGONAW      MMR11002240336290156890224000000000000000   10300001F00104100000000000924000000000000     
100   95050327409540490000000000012330000000012330002000000010410402240716020206531206310224824461302054   1030000900030000   541119000123190110000000080Sein Gay Har BAK       YANGON        MMR11002240716020206530224000000000000000   10300001F00104100000000003083000000000000     
100   62911028202212490000000000012750000000012750002000000010410402240411320165392184800224491411032054   1030000900030000   581219000715190110000000546Akkhaya Tea House(Dago YANGON        MMR11002240411320165390224000000000000000   10300001F00104100000000001301000000000000     
100   62911028202116530000000000010200000000010200002000000010410402240427150168572184800224663571015054   1030000900030000   541119000120190110000000080Sein Gay Har BAK       YANGONADA     MMR11002240427150168570224000000000000000   10300001F00104100000000000612000000000000     
100   62911028202492080000000000003800000000003800002000000010410402240404030163992184800224422341003054   1030000900030000   541119001239190110000000953Marketplace KTYCity Ca YANGONARTAUNG MMR11002240404030163990224000000000000000   10300001F00104100000000000228000000000000     
100   62911028202154800000000000014150000000014150002000000010410402240849090228492184800224046191509054   1030000900030000   541119001280190110000000963City Mart SPL C 5      YANGONMYOTHIT MMR11002240849090228490224000000000000000   10300001F00104100000000000849000000000000     
100   62911028202502480000000000007000000000007000002000000010410402240801390217362184800224443311439054   1030000900030000   541119001081190110000000872Sein Gay Har Hledan    YANGONUT      MMR11002240801390217360224000000000000000   10300001F00104100000000000420000000000000     
100   62911028202465350000000000013145000000013145002000000010410402241806510163572184800224000743320275   1030000200030000   541188001079000008000000294KBZ BANK               CITY MART - J MMR11002241806510163570224000000000000000   10300001 00104100000000000789000000000000     
100   62443101006037900000000000036350000000036350002000000010410402241156090278378332540224201261809054   1030000900030000   581319001478190110000001075The Lord Yankin        YANGON        MMR11002241156090278370224000000000000000   10300001F00104100000000015449000000000000     
100   95050328246950960000000000022300000000022300002000000010410402240551130187099688360224714211213054   1030000900030000   573219001180190110000000936UNIQUE UChit Maung     YANGON        MMR11002240551130187090224000000000000000   10300001F00104100000000005352000000000000     
100   62911028202202580000000000029750000000029750002000000010410402240327300155082184800224901570930054   1030000900030000   591219000504190110000000351Shwe Ohh Pharmacy - (Y YANGONAW      MMR11002240327300155080224000000000000000   10300001F00104100000000001785000000000000     
100   95050312498129060000000000001960000000001960002000000010410402241236210621896424760224000006703444   1020000200030000   333400010001204104000000281Myanmar Soft-Gate Tech Yangon        MMR11002241236210621890224000000000000000   10300001F05104100000000000412000000000000     
100   95050312675525330000000000005000000000005000002000000010410402241244031403921467310224000006703486   1030000200030000   333800010001203104000003327KBZPay                 Yangon        MMR11002241244031403920224000000000000000   10300001F05104100000000001050000000000000     
100   95050313062063490000000000000980000000000980002000000010410402240847451745957766800224000006702056   1020000200030000   333400010001204104000000281Myanmar Soft-Gate Tech Yangon        MMR11002240847451745950224000000000000000   10300001F05104100000000000206000000000000     
100   95050316818236190000000000001960000000001960002000000010410402240347211721676001640224000006699810   1020000200030000   333400010001204104000000281Myanmar Soft-Gate Tech Yangon        MMR11002240347211721670224000000000000000   10300001F05104100000000000412000000000000     
100   95030394609966640000000000039450000000039450002000000010410402240725081808462184800224347531339054   1030000500030000   555610114570104519000012532City Mart Ahlone Branc               MMR11002240725081808460224000000000000000   10300001 00104100000000002367000000000000     
100   62443100333488440000000000005600000000005600002000000010410402240523041791284305430224144531136054   1030000500030000   555610121914104519000018359City Express MCS 114                 MMR11002240523041791280224000000000000000   10300001 00104100000000001400000000000000     
100   95050326511614440000000000023810000000023810002000000010410402241036471839624176600224537061720054   1030000300030000   444410116806104519000014353BreadTalk JunctionCity               MMR11002241036471839620224000000000000000   10300001 00104100000000010120000000000000     
100   95050314064416890000000000001960000000001960002000000010410402240740321032139177780224000006701624   1020000200030000   333400010001204104000000281Myanmar Soft-Gate Tech Yangon        MMR11002240740321032130224000000000000000   10300001F05104100000000000412000000000000     
100   95050329213164970000000000002940000000002940002000000010410402240544521452231681230224000006700831   1020000200030000   333400010001204104000000281Myanmar Soft-Gate Tech Yangon        MMR11002240544521452230224000000000000000   10300001F05104100000000000617000000000000     
100   62911028202492160000000000019961000000019961002000000010410402240739321810862184800224679091418054   1030000500030000   555610112232104519000010487Ocean Super Center St  ohn           MMR11002240739321810860224000000000000000   10300001 00104100000000001198000000000000     
100   95050317743858310000000000007550000000007550002000000010410402240246561772202101000224667160941054   1030000500030000   555610110570104519000009164City Mart China Town P int Cen       MMR11002240246561772200224000000000000000   10300001 00104100000000001888000000000000     
100   62911028202261800000000000051846000000051846002000000010410402240630501801622184800224472041322054   1030000500030000   555610118969104519000016137City Mart South Okkala WZYD BR       MMR11002240630501801620224000000000000000   10300001 00104100000000003111000000000000     
100   95030353051876670000000000010000000000010000002000000010410402240948371837482184800224000006702519   1030000200030000   333800010001203104000003327KBZPay                 Yangon        MMR11002240948371837480224000000000000000   10300001F05104100000000002100000000000000     
100   95050315122972560000000000000980000000000980002000000010410402241245531553519814830224000006703497   1020000200030000   333400010001204104000000281Myanmar Soft-Gate Tech Yangon        MMR11002241245531553510224000000000000000   10300001F05104100000000000206000000000000     
100   62911028202446700000000000063550000000063550002000000010410402240708381806652184800224116391330054   1030000500030000   555610118963104519000016137City Mart South Okkala WZYD BR       MMR11002240708381806650224000000000000000   10300001 00104100000000003813000000000000     
100   95050316785465380000000000000980000000000980002000000010410402241445291529486581170224000006704004   1020000200030000   333400010001204104000000281Myanmar Soft-Gate Tech Yangon        MMR11002241445291529480224000000000000000   10300001F05104100000000000206000000000000     
100   95050312224678430000000000000980000000000980002000000010410402240145541554976731850224000006699105   1020000200030000   333400010001204104000000281Myanmar Soft-Gate Tech Yangon        MMR11002240145541554970224000000000000000   10300001F05104100000000000206000000000000     
100   62911028202225850000000000004400000000004400002000000010410402240626411800822184800224381591205054   1030000500030000   555610117864104519000009164City Mart China Town P int Cen       MMR11002240626411800820224000000000000000   10300001 00104100000000000264000000000000     
100   95050316818236190000000000000980000000000980002000000010410402241235100510548077250224000006703428   1020000200030000   333400010001204104000000281Myanmar Soft-Gate Tech Yangon        MMR11002241235100510540224000000000000000   10300001F05104100000000000206000000000000     
100   62911028202199200000000000065500000000065500002000000010410402240753541813042184800224968231429054   1030000300030000   555510124697104519000020166Makro Myanmar                        MMR11002240753541813040224000000000000000   10300001 00104100000000003930000000000000     
100   62443100372718280000000000017550000000017550002000000010410402240933261828198958150224018031644054   1030000500030000   555610112231104519000010487Ocean Super Center St  ohn           MMR11002240933261828190224000000000000000   10300001 00104100000000004388000000000000     
100   62443100313002190000000000012400000000012400002000000010410402241013571835492013540224982441603054   1030000500030000   555610122351104519000018696CityMartSupermarket Sh ePyiTha       MMR11002241013571835490224000000000000000   10300001 00104100000000003100000000000000     
100   95050312675525330000000000005000000000005000002000000010410402241045311531002098640224000006702923   1030000200030000   333800010001203104000003327KBZPay                 Yangon        MMR11002241045311531000224000000000000000   10300001F05104100000000001050000000000000     
100   62911028202684060000000000026345000000026345002000000010410402240855041822202184800224219251519054   1030000500030000   555610104024104519000003821City Mart North Point  enter         MMR11002240855041822200224000000000000000   10300001 00104100000000001581000000000000     
100   95050310427855490000000000000980000000000980002000000010410402241440091009758233650224000006703979   1020000200030000   333400010001204104000000281Myanmar Soft-Gate Tech Yangon        MMR11002241440091009750224000000000000000   10300001F05104100000000000206000000000000     
100   62911028202417260000000000079300000000079300002000000010410402240515121790472184800224039481121054   1030000300030000   555510125344104519000010634Asia Royal Co Ltd                    MMR11002240515121790470224000000000000000   10300001 00104100000000004758000000000000     
100   95030392891915960000000000045100000000045100002000000010410402240743391811432184800224760121452054   1030000300030000   555510124697104519000020166Makro Myanmar                        MMR11002240743391811430224000000000000000   10300001 00104100000000002706000000000000     
100   95050322957045260000000000001000000000001000002000000010410402241008543854530190870224000006702644   1030000200030000   3338000100012031040000040022C2P (Myanmar) Co. Ltd Yangon        MMR11002241008543854530224000000000000000   10300001F05104100000000000210000000000000     
100   95050316997303010000000000000980000000000980002000000010410402241128135813247651760224000006703152   1020000200030000   333400010001204104000000281Myanmar Soft-Gate Tech Yangon        MMR11002241128135813240224000000000000000   10300001F05104100000000000206000000000000     
100   62443100330105920000000000005000000000005000002000000010410402240628155815520879710224000006701158   1030000200030000   333800010001203104000003327KBZPay                 Yangon        MMR11002240628155815520224000000000000000   10300001F05104100000000001050000000000000     
100   95050316067768680000000000000980000000000980002000000010410402241327285728396921550224000006703664   1020000200030000   333400010001204104000000281Myanmar Soft-Gate Tech Yangon        MMR11002241327285728390224000000000000000   10300001F05104100000000000206000000000000     
100   62911028202010920000000000036000000000036000002000000010410402240943437632372184800224205516763237   1040001600030000   598320000658000000010000527Shwe Taung Energy (YGN Yangon        MMR11002240943437632370224000000000000000   10300001F00104100000000001080000000000000     
100   62911028202677390000000000044907000000044907002000000010410402241257141861112184800224541261953054   1030000300030000   555510125147104519000021022One Stop Mart Shopping Mall 0002     MMR11002241257141861110224000000000000000   10300001 00104100000000002694000000000000     
100   62911028202161240000000000020000000000020000002000000010410402241253471860722184800224498221938054   1030000300030000   888810125458104519000021285Shwe Taung Energy CoLt               MMR11002241253471860720224000000000000000   10300001 00104100000000000600000000000000     
100   95050312937155340000000000070000000000070000002000000010410402241132357714621041830224205518771462   1040001600030000   591220000288000000010000276Shwe Ohh Pharmacy (Nor Yangon        MMR11002241132357714620224000000000000000   10300001F00104100000000016800000000000000     
100   95050314557307430000000000000980000000000980002000000010410402240301563156887398840224000006699461   1020000200030000   333400010001204104000000281Myanmar Soft-Gate Tech Yangon        MMR11002240301563156880224000000000000000   10300001F05104100000000000206000000000000     
100   95050314296769560000000000001960000000001960002000000010410402241057302730277821960224000006702997   1020000200030000   333400010001204104000000281Myanmar Soft-Gate Tech Yangon        MMR11002241057302730270224000000000000000   10300001F05104100000000000412000000000000     
100   62443100318296470000000000042250000000042250002000000010410402240719377565482943890224205514756548   1040001600030000   598320000658000000010000527Shwe Taung Energy (YGN Yangon        MMR11002240719377565480224000000000000000   10300001F00104100000000005070000000000000     
100   95050321976590420000000000010613000000010613002000000010410402241021497656965148320224205517765696   1040001600030000   541120000563000000010000465Ocean Shwe Gone Daing  Yangon        MMR11002241021497656960224000000000000000   10300001F00104100000000002654000000000000     
100   95030305700676370000000000060000000000060000002000000010410402221112190042752184800222205311004275   1030000600030000   554100002141315799420001490DENKO MEIKHTILA 3      MANDALAY      MMR11002221112190042750222000000000000000   10300001 00104100000000001800000000000000     
100   62911028202495540000000000015700000000015700002000000010410402241102281844562184800224226311726054   1030000500030000   555610110575104519000009164City Mart China Town P int Cen       MMR11002241102281844560224000000000000000   10300001 00104100000000000942000000000000     
100   62911028202173870000000000012550000000012550002000000010410402241148411853372184800224449171849054   1030000500030000   555610110601104519000009166City Mart 47 Branch                  MMR11002241148411853370224000000000000000   10300001 00104100000000000753000000000000     
100   95030390626214130000000000009750000000009750002000000010410402241128391849772184800224938571724054   1030000500030000   555610103479104519000003432City Mart Junction Zaw na 6          MMR11002241128391849770224000000000000000   10300001 00104100000000000585000000000000     
